{
  "contractName": "NFTAirdrop",
  "abi": [
    {
      "inputs": [
        {
          "internalType": "uint256",
          "name": "_saleStart",
          "type": "uint256"
        },
        {
          "internalType": "uint256",
          "name": "_saleEnd",
          "type": "uint256"
        },
        {
          "internalType": "uint256",
          "name": "_price",
          "type": "uint256"
        }
      ],
      "stateMutability": "nonpayable",
      "type": "constructor"
    },
    {
      "anonymous": false,
      "inputs": [
        {
          "indexed": true,
          "internalType": "address",
          "name": "owner",
          "type": "address"
        },
        {
          "indexed": true,
          "internalType": "address",
          "name": "approved",
          "type": "address"
        },
        {
          "indexed": true,
          "internalType": "uint256",
          "name": "tokenId",
          "type": "uint256"
        }
      ],
      "name": "Approval",
      "type": "event"
    },
    {
      "anonymous": false,
      "inputs": [
        {
          "indexed": true,
          "internalType": "address",
          "name": "owner",
          "type": "address"
        },
        {
          "indexed": true,
          "internalType": "address",
          "name": "operator",
          "type": "address"
        },
        {
          "indexed": false,
          "internalType": "bool",
          "name": "approved",
          "type": "bool"
        }
      ],
      "name": "ApprovalForAll",
      "type": "event"
    },
    {
      "anonymous": false,
      "inputs": [
        {
          "indexed": true,
          "internalType": "address",
          "name": "previousOwner",
          "type": "address"
        },
        {
          "indexed": true,
          "internalType": "address",
          "name": "newOwner",
          "type": "address"
        }
      ],
      "name": "OwnershipTransferred",
      "type": "event"
    },
    {
      "anonymous": false,
      "inputs": [
        {
          "indexed": true,
          "internalType": "address",
          "name": "from",
          "type": "address"
        },
        {
          "indexed": true,
          "internalType": "address",
          "name": "to",
          "type": "address"
        },
        {
          "indexed": true,
          "internalType": "uint256",
          "name": "tokenId",
          "type": "uint256"
        }
      ],
      "name": "Transfer",
      "type": "event"
    },
    {
      "stateMutability": "nonpayable",
      "type": "fallback"
    },
    {
      "inputs": [],
      "name": "MAX_MINT",
      "outputs": [
        {
          "internalType": "uint256",
          "name": "",
          "type": "uint256"
        }
      ],
      "stateMutability": "view",
      "type": "function"
    },
    {
      "inputs": [
        {
          "internalType": "address",
          "name": "to",
          "type": "address"
        },
        {
          "internalType": "uint256",
          "name": "tokenId",
          "type": "uint256"
        }
      ],
      "name": "approve",
      "outputs": [],
      "stateMutability": "nonpayable",
      "type": "function"
    },
    {
      "inputs": [
        {
          "internalType": "address",
          "name": "owner",
          "type": "address"
        }
      ],
      "name": "balanceOf",
      "outputs": [
        {
          "internalType": "uint256",
          "name": "",
          "type": "uint256"
        }
      ],
      "stateMutability": "view",
      "type": "function"
    },
    {
      "inputs": [],
      "name": "baseURI",
      "outputs": [
        {
          "internalType": "string",
          "name": "",
          "type": "string"
        }
      ],
      "stateMutability": "view",
      "type": "function"
    },
    {
      "inputs": [
        {
          "internalType": "uint256",
          "name": "tokenId",
          "type": "uint256"
        }
      ],
      "name": "getApproved",
      "outputs": [
        {
          "internalType": "address",
          "name": "",
          "type": "address"
        }
      ],
      "stateMutability": "view",
      "type": "function"
    },
    {
      "inputs": [
        {
          "internalType": "address",
          "name": "owner",
          "type": "address"
        },
        {
          "internalType": "address",
          "name": "operator",
          "type": "address"
        }
      ],
      "name": "isApprovedForAll",
      "outputs": [
        {
          "internalType": "bool",
          "name": "",
          "type": "bool"
        }
      ],
      "stateMutability": "view",
      "type": "function"
    },
    {
      "inputs": [],
      "name": "name",
      "outputs": [
        {
          "internalType": "string",
          "name": "",
          "type": "string"
        }
      ],
      "stateMutability": "view",
      "type": "function"
    },
    {
      "inputs": [
        {
          "internalType": "uint256",
          "name": "",
          "type": "uint256"
        }
      ],
      "name": "nftOwners",
      "outputs": [
        {
          "internalType": "address",
          "name": "",
          "type": "address"
        }
      ],
      "stateMutability": "view",
      "type": "function"
    },
    {
      "inputs": [],
      "name": "nftsSale",
      "outputs": [
        {
          "internalType": "uint256",
          "name": "",
          "type": "uint256"
        }
      ],
      "stateMutability": "view",
      "type": "function"
    },
    {
      "inputs": [],
      "name": "owner",
      "outputs": [
        {
          "internalType": "address",
          "name": "",
          "type": "address"
        }
      ],
      "stateMutability": "view",
      "type": "function"
    },
    {
      "inputs": [
        {
          "internalType": "uint256",
          "name": "tokenId",
          "type": "uint256"
        }
      ],
      "name": "ownerOf",
      "outputs": [
        {
          "internalType": "address",
          "name": "",
          "type": "address"
        }
      ],
      "stateMutability": "view",
      "type": "function"
    },
    {
      "inputs": [],
      "name": "price",
      "outputs": [
        {
          "internalType": "uint256",
          "name": "",
          "type": "uint256"
        }
      ],
      "stateMutability": "view",
      "type": "function"
    },
    {
      "inputs": [],
      "name": "renounceOwnership",
      "outputs": [],
      "stateMutability": "nonpayable",
      "type": "function"
    },
    {
      "inputs": [
        {
          "internalType": "address",
          "name": "from",
          "type": "address"
        },
        {
          "internalType": "address",
          "name": "to",
          "type": "address"
        },
        {
          "internalType": "uint256",
          "name": "tokenId",
          "type": "uint256"
        }
      ],
      "name": "safeTransferFrom",
      "outputs": [],
      "stateMutability": "nonpayable",
      "type": "function"
    },
    {
      "inputs": [
        {
          "internalType": "address",
          "name": "from",
          "type": "address"
        },
        {
          "internalType": "address",
          "name": "to",
          "type": "address"
        },
        {
          "internalType": "uint256",
          "name": "tokenId",
          "type": "uint256"
        },
        {
          "internalType": "bytes",
          "name": "_data",
          "type": "bytes"
        }
      ],
      "name": "safeTransferFrom",
      "outputs": [],
      "stateMutability": "nonpayable",
      "type": "function"
    },
    {
      "inputs": [],
      "name": "saleEnd",
      "outputs": [
        {
          "internalType": "uint256",
          "name": "",
          "type": "uint256"
        }
      ],
      "stateMutability": "view",
      "type": "function"
    },
    {
      "inputs": [],
      "name": "saleStart",
      "outputs": [
        {
          "internalType": "uint256",
          "name": "",
          "type": "uint256"
        }
      ],
      "stateMutability": "view",
      "type": "function"
    },
    {
      "inputs": [
        {
          "internalType": "address",
          "name": "operator",
          "type": "address"
        },
        {
          "internalType": "bool",
          "name": "approved",
          "type": "bool"
        }
      ],
      "name": "setApprovalForAll",
      "outputs": [],
      "stateMutability": "nonpayable",
      "type": "function"
    },
    {
      "inputs": [],
      "name": "symbol",
      "outputs": [
        {
          "internalType": "string",
          "name": "",
          "type": "string"
        }
      ],
      "stateMutability": "view",
      "type": "function"
    },
    {
      "inputs": [
        {
          "internalType": "uint256",
          "name": "index",
          "type": "uint256"
        }
      ],
      "name": "tokenByIndex",
      "outputs": [
        {
          "internalType": "uint256",
          "name": "",
          "type": "uint256"
        }
      ],
      "stateMutability": "view",
      "type": "function"
    },
    {
      "inputs": [
        {
          "internalType": "address",
          "name": "owner",
          "type": "address"
        },
        {
          "internalType": "uint256",
          "name": "index",
          "type": "uint256"
        }
      ],
      "name": "tokenOfOwnerByIndex",
      "outputs": [
        {
          "internalType": "uint256",
          "name": "",
          "type": "uint256"
        }
      ],
      "stateMutability": "view",
      "type": "function"
    },
    {
      "inputs": [],
      "name": "totalSupply",
      "outputs": [
        {
          "internalType": "uint256",
          "name": "",
          "type": "uint256"
        }
      ],
      "stateMutability": "view",
      "type": "function"
    },
    {
      "inputs": [
        {
          "internalType": "address",
          "name": "from",
          "type": "address"
        },
        {
          "internalType": "address",
          "name": "to",
          "type": "address"
        },
        {
          "internalType": "uint256",
          "name": "tokenId",
          "type": "uint256"
        }
      ],
      "name": "transferFrom",
      "outputs": [],
      "stateMutability": "nonpayable",
      "type": "function"
    },
    {
      "inputs": [
        {
          "internalType": "address",
          "name": "newOwner",
          "type": "address"
        }
      ],
      "name": "transferOwnership",
      "outputs": [],
      "stateMutability": "nonpayable",
      "type": "function"
    },
    {
      "stateMutability": "payable",
      "type": "receive"
    },
    {
      "inputs": [
        {
          "internalType": "uint256",
          "name": "_newStart",
          "type": "uint256"
        }
      ],
      "name": "setSaleStart",
      "outputs": [],
      "stateMutability": "nonpayable",
      "type": "function"
    },
    {
      "inputs": [
        {
          "internalType": "uint256",
          "name": "_newEnd",
          "type": "uint256"
        }
      ],
      "name": "setSaleEnd",
      "outputs": [],
      "stateMutability": "nonpayable",
      "type": "function"
    },
    {
      "inputs": [
        {
          "internalType": "uint256",
          "name": "_newMax",
          "type": "uint256"
        }
      ],
      "name": "changeMaxMint",
      "outputs": [],
      "stateMutability": "nonpayable",
      "type": "function"
    },
    {
      "inputs": [
        {
          "internalType": "uint256",
          "name": "_newPrice",
          "type": "uint256"
        }
      ],
      "name": "setPrice",
      "outputs": [],
      "stateMutability": "nonpayable",
      "type": "function"
    },
    {
      "inputs": [],
      "name": "mint",
      "outputs": [],
      "stateMutability": "payable",
      "type": "function"
    },
    {
      "inputs": [
        {
          "internalType": "string",
          "name": "baseURI_",
          "type": "string"
        }
      ],
      "name": "setBaseURI",
      "outputs": [],
      "stateMutability": "nonpayable",
      "type": "function"
    },
    {
      "inputs": [
        {
          "internalType": "uint256",
          "name": "tokenId",
          "type": "uint256"
        }
      ],
      "name": "tokenURI",
      "outputs": [
        {
          "internalType": "string",
          "name": "",
          "type": "string"
        }
      ],
      "stateMutability": "view",
      "type": "function"
    },
    {
      "inputs": [
        {
          "internalType": "bytes4",
          "name": "interfaceId",
          "type": "bytes4"
        }
      ],
      "name": "supportsInterface",
      "outputs": [
        {
          "internalType": "bool",
          "name": "",
          "type": "bool"
        }
      ],
      "stateMutability": "view",
      "type": "function"
    }
  ],
  "bytecode": "0x6080604052604051806080016040528060438152602001620041816043913960119080519060200190620000359291906200021b565b506127106012553480156200004957600080fd5b50604051620041c4380380620041c483398181016040528101906200006f9190620002e2565b6040518060400160405280600a81526020017f44696769446f6e757473000000000000000000000000000000000000000000008152506040518060400160405280600281526020017f44440000000000000000000000000000000000000000000000000000000000008152508160009080519060200190620000f39291906200021b565b5080600190805190602001906200010c9291906200021b565b5050506200012f620001236200014d60201b60201c565b6200015560201b60201c565b82600e8190555081600d8190555080601081905550505050620003cc565b600033905090565b6000600660009054906101000a900473ffffffffffffffffffffffffffffffffffffffff16905081600660006101000a81548173ffffffffffffffffffffffffffffffffffffffff021916908373ffffffffffffffffffffffffffffffffffffffff1602179055508173ffffffffffffffffffffffffffffffffffffffff168173ffffffffffffffffffffffffffffffffffffffff167f8be0079c531659141344cd1fd0a4f28419497f9722a3daafe3b4186f6b6457e060405160405180910390a35050565b828054620002299062000348565b90600052602060002090601f0160209004810192826200024d576000855562000299565b82601f106200026857805160ff191683800117855562000299565b8280016001018555821562000299579182015b82811115620002985782518255916020019190600101906200027b565b5b509050620002a89190620002ac565b5090565b5b80821115620002c7576000816000905550600101620002ad565b5090565b600081519050620002dc81620003b2565b92915050565b600080600060608486031215620002fe57620002fd620003ad565b5b60006200030e86828701620002cb565b93505060206200032186828701620002cb565b92505060406200033486828701620002cb565b9150509250925092565b6000819050919050565b600060028204905060018216806200036157607f821691505b602082108114156200037857620003776200037e565b5b50919050565b7f4e487b7100000000000000000000000000000000000000000000000000000000600052602260045260246000fd5b600080fd5b620003bd816200033e565b8114620003c957600080fd5b50565b613da580620003dc6000396000f3fe6080604052600436106101e75760003560e01c806370a0823111610102578063b664aedd11610095578063c87b56dd11610064578063c87b56dd146106e6578063e985e9c514610723578063f0292a0314610760578063f2fde38b1461078b576101ee565b8063b664aedd1461062a578063b88d4fde14610655578063bbd94c2f1461067e578063c10b9358146106bb576101ee565b806395d89b41116100d157806395d89b4114610580578063a035b1fe146105ab578063a22cb465146105d6578063ab0bcc41146105ff576101ee565b806370a08231146104d8578063715018a6146105155780638da5cb5b1461052c57806391b7f5ed14610557576101ee565b806323b872dd1161017a5780634f6ccce7116101495780634f6ccce71461040a57806355f804b3146104475780636352211e146104705780636c0360eb146104ad576101ee565b806323b872dd146103525780632f181f541461037b5780632f745c59146103a457806342842e0e146103e1576101ee565b80631249c58b116101b65780631249c58b146102cb5780631515fa6e146102d557806318160ddd146102fe57806320c63e3b14610329576101ee565b806301ffc9a7146101fd57806306fdde031461023a578063081812fc14610265578063095ea7b3146102a2576101ee565b366101ee57005b3480156101fa57600080fd5b50005b34801561020957600080fd5b50610224600480360381019061021f9190612bb5565b6107b4565b604051610231919061309c565b60405180910390f35b34801561024657600080fd5b5061024f6107c6565b60405161025c91906130b7565b60405180910390f35b34801561027157600080fd5b5061028c60048036038101906102879190612c58565b610858565b6040516102999190613035565b60405180910390f35b3480156102ae57600080fd5b506102c960048036038101906102c49190612b75565b6108dd565b005b6102d36109f5565b005b3480156102e157600080fd5b506102fc60048036038101906102f79190612c58565b610ab0565b005b34801561030a57600080fd5b50610313610b36565b6040516103209190613359565b60405180910390f35b34801561033557600080fd5b50610350600480360381019061034b9190612c58565b610b43565b005b34801561035e57600080fd5b5061037960048036038101906103749190612a5f565b610bc9565b005b34801561038757600080fd5b506103a2600480360381019061039d9190612c58565b610c29565b005b3480156103b057600080fd5b506103cb60048036038101906103c69190612b75565b610caf565b6040516103d89190613359565b60405180910390f35b3480156103ed57600080fd5b5061040860048036038101906104039190612a5f565b610d54565b005b34801561041657600080fd5b50610431600480360381019061042c9190612c58565b610d74565b60405161043e9190613359565b60405180910390f35b34801561045357600080fd5b5061046e60048036038101906104699190612c0f565b610de5565b005b34801561047c57600080fd5b5061049760048036038101906104929190612c58565b610e7b565b6040516104a49190613035565b60405180910390f35b3480156104b957600080fd5b506104c2610f2d565b6040516104cf91906130b7565b60405180910390f35b3480156104e457600080fd5b506104ff60048036038101906104fa91906129f2565b610fbb565b60405161050c9190613359565b60405180910390f35b34801561052157600080fd5b5061052a611073565b005b34801561053857600080fd5b506105416110fb565b60405161054e9190613035565b60405180910390f35b34801561056357600080fd5b5061057e60048036038101906105799190612c58565b611125565b005b34801561058c57600080fd5b506105956111ab565b6040516105a291906130b7565b60405180910390f35b3480156105b757600080fd5b506105c061123d565b6040516105cd9190613359565b60405180910390f35b3480156105e257600080fd5b506105fd60048036038101906105f89190612b35565b611243565b005b34801561060b57600080fd5b506106146113c4565b6040516106219190613359565b60405180910390f35b34801561063657600080fd5b5061063f6113ca565b60405161064c9190613359565b60405180910390f35b34801561066157600080fd5b5061067c60048036038101906106779190612ab2565b6113d0565b005b34801561068a57600080fd5b506106a560048036038101906106a09190612c58565b611432565b6040516106b29190613035565b60405180910390f35b3480156106c757600080fd5b506106d0611465565b6040516106dd9190613359565b60405180910390f35b3480156106f257600080fd5b5061070d60048036038101906107089190612c58565b61146b565b60405161071a91906130b7565b60405180910390f35b34801561072f57600080fd5b5061074a60048036038101906107459190612a1f565b611512565b604051610757919061309c565b60405180910390f35b34801561076c57600080fd5b506107756115a6565b6040516107829190613359565b60405180910390f35b34801561079757600080fd5b506107b260048036038101906107ad91906129f2565b6115ac565b005b60006107bf826116a4565b9050919050565b6060600080546107d5906135af565b80601f0160208091040260200160405190810160405280929190818152602001828054610801906135af565b801561084e5780601f106108235761010080835404028352916020019161084e565b820191906000526020600020905b81548152906001019060200180831161083157829003601f168201915b5050505050905090565b60006108638261171e565b6108a2576040517f08c379a000000000000000000000000000000000000000000000000000000000815260040161089990613259565b60405180910390fd5b6004600083815260200190815260200160002060009054906101000a900473ffffffffffffffffffffffffffffffffffffffff169050919050565b60006108e882610e7b565b90508073ffffffffffffffffffffffffffffffffffffffff168373ffffffffffffffffffffffffffffffffffffffff161415610959576040517f08c379a0000000000000000000000000000000000000000000000000000000008152600401610950906132d9565b60405180910390fd5b8073ffffffffffffffffffffffffffffffffffffffff1661097861178a565b73ffffffffffffffffffffffffffffffffffffffff1614806109a757506109a6816109a161178a565b611512565b5b6109e6576040517f08c379a00000000000000000000000000000000000000000000000000000000081526004016109dd906131d9565b60405180910390fd5b6109f08383611792565b505050565b600e54421015610a3a576040517f08c379a0000000000000000000000000000000000000000000000000000000008152600401610a31906130d9565b60405180910390fd5b600d544210610a7e576040517f08c379a0000000000000000000000000000000000000000000000000000000008152600401610a7590613319565b60405180910390fd5b600f6000815480929190610a9190613612565b9190505550610aae336001600f54610aa991906134c5565b61184b565b565b610ab861178a565b73ffffffffffffffffffffffffffffffffffffffff16610ad66110fb565b73ffffffffffffffffffffffffffffffffffffffff1614610b2c576040517f08c379a0000000000000000000000000000000000000000000000000000000008152600401610b2390613279565b60405180910390fd5b80600d8190555050565b6000600980549050905090565b610b4b61178a565b73ffffffffffffffffffffffffffffffffffffffff16610b696110fb565b73ffffffffffffffffffffffffffffffffffffffff1614610bbf576040517f08c379a0000000000000000000000000000000000000000000000000000000008152600401610bb690613279565b60405180910390fd5b8060128190555050565b610bda610bd461178a565b82611869565b610c19576040517f08c379a0000000000000000000000000000000000000000000000000000000008152600401610c10906132f9565b60405180910390fd5b610c24838383611947565b505050565b610c3161178a565b73ffffffffffffffffffffffffffffffffffffffff16610c4f6110fb565b73ffffffffffffffffffffffffffffffffffffffff1614610ca5576040517f08c379a0000000000000000000000000000000000000000000000000000000008152600401610c9c90613279565b60405180910390fd5b80600e8190555050565b6000610cba83610fbb565b8210610cfb576040517f08c379a0000000000000000000000000000000000000000000000000000000008152600401610cf2906130f9565b60405180910390fd5b600760008473ffffffffffffffffffffffffffffffffffffffff1673ffffffffffffffffffffffffffffffffffffffff168152602001908152602001600020600083815260200190815260200160002054905092915050565b610d6f838383604051806020016040528060008152506113d0565b505050565b6000610d7e610b36565b8210610dbf576040517f08c379a0000000000000000000000000000000000000000000000000000000008152600401610db690613339565b60405180910390fd5b60098281548110610dd357610dd2613748565b5b90600052602060002001549050919050565b610ded61178a565b73ffffffffffffffffffffffffffffffffffffffff16610e0b6110fb565b73ffffffffffffffffffffffffffffffffffffffff1614610e61576040517f08c379a0000000000000000000000000000000000000000000000000000000008152600401610e5890613279565b60405180910390fd5b8060119080519060200190610e77929190612806565b5050565b6000806002600084815260200190815260200160002060009054906101000a900473ffffffffffffffffffffffffffffffffffffffff169050600073ffffffffffffffffffffffffffffffffffffffff168173ffffffffffffffffffffffffffffffffffffffff161415610f24576040517f08c379a0000000000000000000000000000000000000000000000000000000008152600401610f1b90613219565b60405180910390fd5b80915050919050565b60118054610f3a906135af565b80601f0160208091040260200160405190810160405280929190818152602001828054610f66906135af565b8015610fb35780601f10610f8857610100808354040283529160200191610fb3565b820191906000526020600020905b815481529060010190602001808311610f9657829003601f168201915b505050505081565b60008073ffffffffffffffffffffffffffffffffffffffff168273ffffffffffffffffffffffffffffffffffffffff16141561102c576040517f08c379a0000000000000000000000000000000000000000000000000000000008152600401611023906131f9565b60405180910390fd5b600360008373ffffffffffffffffffffffffffffffffffffffff1673ffffffffffffffffffffffffffffffffffffffff168152602001908152602001600020549050919050565b61107b61178a565b73ffffffffffffffffffffffffffffffffffffffff166110996110fb565b73ffffffffffffffffffffffffffffffffffffffff16146110ef576040517f08c379a00000000000000000000000000000000000000000000000000000000081526004016110e690613279565b60405180910390fd5b6110f96000611ba3565b565b6000600660009054906101000a900473ffffffffffffffffffffffffffffffffffffffff16905090565b61112d61178a565b73ffffffffffffffffffffffffffffffffffffffff1661114b6110fb565b73ffffffffffffffffffffffffffffffffffffffff16146111a1576040517f08c379a000000000000000000000000000000000000000000000000000000000815260040161119890613279565b60405180910390fd5b8060108190555050565b6060600180546111ba906135af565b80601f01602080910402602001604051908101604052809291908181526020018280546111e6906135af565b80156112335780601f1061120857610100808354040283529160200191611233565b820191906000526020600020905b81548152906001019060200180831161121657829003601f168201915b5050505050905090565b60105481565b61124b61178a565b73ffffffffffffffffffffffffffffffffffffffff168273ffffffffffffffffffffffffffffffffffffffff1614156112b9576040517f08c379a00000000000000000000000000000000000000000000000000000000081526004016112b090613199565b60405180910390fd5b80600560006112c661178a565b73ffffffffffffffffffffffffffffffffffffffff1673ffffffffffffffffffffffffffffffffffffffff16815260200190815260200160002060008473ffffffffffffffffffffffffffffffffffffffff1673ffffffffffffffffffffffffffffffffffffffff16815260200190815260200160002060006101000a81548160ff0219169083151502179055508173ffffffffffffffffffffffffffffffffffffffff1661137361178a565b73ffffffffffffffffffffffffffffffffffffffff167f17307eab39ab6107e8899845ad3d59bd9653f200f220920489ca2b5937696c31836040516113b8919061309c565b60405180910390a35050565b600e5481565b600f5481565b6113e16113db61178a565b83611869565b611420576040517f08c379a0000000000000000000000000000000000000000000000000000000008152600401611417906132f9565b60405180910390fd5b61142c84848484611c69565b50505050565b600c6020528060005260406000206000915054906101000a900473ffffffffffffffffffffffffffffffffffffffff1681565b600d5481565b60606114768261171e565b6114b5576040517f08c379a00000000000000000000000000000000000000000000000000000000081526004016114ac906132b9565b60405180910390fd5b60006114bf611cc5565b905060008151116114df576040518060200160405280600081525061150a565b806114e984611d57565b6040516020016114fa929190613011565b6040516020818303038152906040525b915050919050565b6000600560008473ffffffffffffffffffffffffffffffffffffffff1673ffffffffffffffffffffffffffffffffffffffff16815260200190815260200160002060008373ffffffffffffffffffffffffffffffffffffffff1673ffffffffffffffffffffffffffffffffffffffff16815260200190815260200160002060009054906101000a900460ff16905092915050565b60125481565b6115b461178a565b73ffffffffffffffffffffffffffffffffffffffff166115d26110fb565b73ffffffffffffffffffffffffffffffffffffffff1614611628576040517f08c379a000000000000000000000000000000000000000000000000000000000815260040161161f90613279565b60405180910390fd5b600073ffffffffffffffffffffffffffffffffffffffff168173ffffffffffffffffffffffffffffffffffffffff161415611698576040517f08c379a000000000000000000000000000000000000000000000000000000000815260040161168f90613139565b60405180910390fd5b6116a181611ba3565b50565b60007f780e9d63000000000000000000000000000000000000000000000000000000007bffffffffffffffffffffffffffffffffffffffffffffffffffffffff1916827bffffffffffffffffffffffffffffffffffffffffffffffffffffffff19161480611717575061171682611eb8565b5b9050919050565b60008073ffffffffffffffffffffffffffffffffffffffff166002600084815260200190815260200160002060009054906101000a900473ffffffffffffffffffffffffffffffffffffffff1673ffffffffffffffffffffffffffffffffffffffff1614159050919050565b600033905090565b816004600083815260200190815260200160002060006101000a81548173ffffffffffffffffffffffffffffffffffffffff021916908373ffffffffffffffffffffffffffffffffffffffff160217905550808273ffffffffffffffffffffffffffffffffffffffff1661180583610e7b565b73ffffffffffffffffffffffffffffffffffffffff167f8c5be1e5ebec7d5bd14f71427d1e84f3dd0314c0f7b2291e5b200ac8c7c3b92560405160405180910390a45050565b611865828260405180602001604052806000815250611f9a565b5050565b60006118748261171e565b6118b3576040517f08c379a00000000000000000000000000000000000000000000000000000000081526004016118aa906131b9565b60405180910390fd5b60006118be83610e7b565b90508073ffffffffffffffffffffffffffffffffffffffff168473ffffffffffffffffffffffffffffffffffffffff16148061192d57508373ffffffffffffffffffffffffffffffffffffffff1661191584610858565b73ffffffffffffffffffffffffffffffffffffffff16145b8061193e575061193d8185611512565b5b91505092915050565b8273ffffffffffffffffffffffffffffffffffffffff1661196782610e7b565b73ffffffffffffffffffffffffffffffffffffffff16146119bd576040517f08c379a00000000000000000000000000000000000000000000000000000000081526004016119b490613299565b60405180910390fd5b600073ffffffffffffffffffffffffffffffffffffffff168273ffffffffffffffffffffffffffffffffffffffff161415611a2d576040517f08c379a0000000000000000000000000000000000000000000000000000000008152600401611a2490613179565b60405180910390fd5b611a38838383611ff5565b611a43600082611792565b6001600360008573ffffffffffffffffffffffffffffffffffffffff1673ffffffffffffffffffffffffffffffffffffffff1681526020019081526020016000206000828254611a9391906134c5565b925050819055506001600360008473ffffffffffffffffffffffffffffffffffffffff1673ffffffffffffffffffffffffffffffffffffffff1681526020019081526020016000206000828254611aea919061343e565b92505081905550816002600083815260200190815260200160002060006101000a81548173ffffffffffffffffffffffffffffffffffffffff021916908373ffffffffffffffffffffffffffffffffffffffff160217905550808273ffffffffffffffffffffffffffffffffffffffff168473ffffffffffffffffffffffffffffffffffffffff167fddf252ad1be2c89b69c2b068fc378daa952ba7f163c4a11628f55a4df523b3ef60405160405180910390a4505050565b6000600660009054906101000a900473ffffffffffffffffffffffffffffffffffffffff16905081600660006101000a81548173ffffffffffffffffffffffffffffffffffffffff021916908373ffffffffffffffffffffffffffffffffffffffff1602179055508173ffffffffffffffffffffffffffffffffffffffff168173ffffffffffffffffffffffffffffffffffffffff167f8be0079c531659141344cd1fd0a4f28419497f9722a3daafe3b4186f6b6457e060405160405180910390a35050565b611c74848484611947565b611c8084848484612005565b611cbf576040517f08c379a0000000000000000000000000000000000000000000000000000000008152600401611cb690613119565b60405180910390fd5b50505050565b606060118054611cd4906135af565b80601f0160208091040260200160405190810160405280929190818152602001828054611d00906135af565b8015611d4d5780601f10611d2257610100808354040283529160200191611d4d565b820191906000526020600020905b815481529060010190602001808311611d3057829003601f168201915b5050505050905090565b60606000821415611d9f576040518060400160405280600181526020017f30000000000000000000000000000000000000000000000000000000000000008152509050611eb3565b600082905060005b60008214611dd1578080611dba90613612565b915050600a82611dca9190613494565b9150611da7565b60008167ffffffffffffffff811115611ded57611dec613777565b5b6040519080825280601f01601f191660200182016040528015611e1f5781602001600182028036833780820191505090505b5090505b60008514611eac57600182611e3891906134c5565b9150600a85611e47919061365b565b6030611e53919061343e565b60f81b818381518110611e6957611e68613748565b5b60200101907effffffffffffffffffffffffffffffffffffffffffffffffffffffffffffff1916908160001a905350600a85611ea59190613494565b9450611e23565b8093505050505b919050565b60007f80ac58cd000000000000000000000000000000000000000000000000000000007bffffffffffffffffffffffffffffffffffffffffffffffffffffffff1916827bffffffffffffffffffffffffffffffffffffffffffffffffffffffff19161480611f8357507f5b5e139f000000000000000000000000000000000000000000000000000000007bffffffffffffffffffffffffffffffffffffffffffffffffffffffff1916827bffffffffffffffffffffffffffffffffffffffffffffffffffffffff1916145b80611f935750611f928261219c565b5b9050919050565b611fa48383612206565b611fb16000848484612005565b611ff0576040517f08c379a0000000000000000000000000000000000000000000000000000000008152600401611fe790613119565b60405180910390fd5b505050565b6120008383836123d4565b505050565b60006120268473ffffffffffffffffffffffffffffffffffffffff166124e8565b1561218f578373ffffffffffffffffffffffffffffffffffffffff1663150b7a0261204f61178a565b8786866040518563ffffffff1660e01b81526004016120719493929190613050565b602060405180830381600087803b15801561208b57600080fd5b505af19250505080156120bc57506040513d601f19601f820116820180604052508101906120b99190612be2565b60015b61213f573d80600081146120ec576040519150601f19603f3d011682016040523d82523d6000602084013e6120f1565b606091505b50600081511415612137576040517f08c379a000000000000000000000000000000000000000000000000000000000815260040161212e90613119565b60405180910390fd5b805181602001fd5b63150b7a0260e01b7bffffffffffffffffffffffffffffffffffffffffffffffffffffffff1916817bffffffffffffffffffffffffffffffffffffffffffffffffffffffff191614915050612194565b600190505b949350505050565b60007f01ffc9a7000000000000000000000000000000000000000000000000000000007bffffffffffffffffffffffffffffffffffffffffffffffffffffffff1916827bffffffffffffffffffffffffffffffffffffffffffffffffffffffff1916149050919050565b600073ffffffffffffffffffffffffffffffffffffffff168273ffffffffffffffffffffffffffffffffffffffff161415612276576040517f08c379a000000000000000000000000000000000000000000000000000000000815260040161226d90613239565b60405180910390fd5b61227f8161171e565b156122bf576040517f08c379a00000000000000000000000000000000000000000000000000000000081526004016122b690613159565b60405180910390fd5b6122cb60008383611ff5565b6001600360008473ffffffffffffffffffffffffffffffffffffffff1673ffffffffffffffffffffffffffffffffffffffff168152602001908152602001600020600082825461231b919061343e565b92505081905550816002600083815260200190815260200160002060006101000a81548173ffffffffffffffffffffffffffffffffffffffff021916908373ffffffffffffffffffffffffffffffffffffffff160217905550808273ffffffffffffffffffffffffffffffffffffffff16600073ffffffffffffffffffffffffffffffffffffffff167fddf252ad1be2c89b69c2b068fc378daa952ba7f163c4a11628f55a4df523b3ef60405160405180910390a45050565b6123df8383836124fb565b600073ffffffffffffffffffffffffffffffffffffffff168373ffffffffffffffffffffffffffffffffffffffff1614156124225761241d81612500565b612461565b8173ffffffffffffffffffffffffffffffffffffffff168373ffffffffffffffffffffffffffffffffffffffff16146124605761245f8382612549565b5b5b600073ffffffffffffffffffffffffffffffffffffffff168273ffffffffffffffffffffffffffffffffffffffff1614156124a45761249f816126b6565b6124e3565b8273ffffffffffffffffffffffffffffffffffffffff168273ffffffffffffffffffffffffffffffffffffffff16146124e2576124e18282612787565b5b5b505050565b600080823b905060008111915050919050565b505050565b600980549050600a600083815260200190815260200160002081905550600981908060018154018082558091505060019003906000526020600020016000909190919091505550565b6000600161255684610fbb565b61256091906134c5565b9050600060086000848152602001908152602001600020549050818114612645576000600760008673ffffffffffffffffffffffffffffffffffffffff1673ffffffffffffffffffffffffffffffffffffffff168152602001908152602001600020600084815260200190815260200160002054905080600760008773ffffffffffffffffffffffffffffffffffffffff1673ffffffffffffffffffffffffffffffffffffffff168152602001908152602001600020600084815260200190815260200160002081905550816008600083815260200190815260200160002081905550505b6008600084815260200190815260200160002060009055600760008573ffffffffffffffffffffffffffffffffffffffff1673ffffffffffffffffffffffffffffffffffffffff16815260200190815260200160002060008381526020019081526020016000206000905550505050565b600060016009805490506126ca91906134c5565b90506000600a60008481526020019081526020016000205490506000600983815481106126fa576126f9613748565b5b90600052602060002001549050806009838154811061271c5761271b613748565b5b906000526020600020018190555081600a600083815260200190815260200160002081905550600a600085815260200190815260200160002060009055600980548061276b5761276a613719565b5b6001900381819060005260206000200160009055905550505050565b600061279283610fbb565b905081600760008573ffffffffffffffffffffffffffffffffffffffff1673ffffffffffffffffffffffffffffffffffffffff168152602001908152602001600020600083815260200190815260200160002081905550806008600084815260200190815260200160002081905550505050565b828054612812906135af565b90600052602060002090601f016020900481019282612834576000855561287b565b82601f1061284d57805160ff191683800117855561287b565b8280016001018555821561287b579182015b8281111561287a57825182559160200191906001019061285f565b5b509050612888919061288c565b5090565b5b808211156128a557600081600090555060010161288d565b5090565b60006128bc6128b784613399565b613374565b9050828152602081018484840111156128d8576128d76137ab565b5b6128e384828561356d565b509392505050565b60006128fe6128f9846133ca565b613374565b90508281526020810184848401111561291a576129196137ab565b5b61292584828561356d565b509392505050565b60008135905061293c81613d13565b92915050565b60008135905061295181613d2a565b92915050565b60008135905061296681613d41565b92915050565b60008151905061297b81613d41565b92915050565b600082601f830112612996576129956137a6565b5b81356129a68482602086016128a9565b91505092915050565b600082601f8301126129c4576129c36137a6565b5b81356129d48482602086016128eb565b91505092915050565b6000813590506129ec81613d58565b92915050565b600060208284031215612a0857612a076137b5565b5b6000612a168482850161292d565b91505092915050565b60008060408385031215612a3657612a356137b5565b5b6000612a448582860161292d565b9250506020612a558582860161292d565b9150509250929050565b600080600060608486031215612a7857612a776137b5565b5b6000612a868682870161292d565b9350506020612a978682870161292d565b9250506040612aa8868287016129dd565b9150509250925092565b60008060008060808587031215612acc57612acb6137b5565b5b6000612ada8782880161292d565b9450506020612aeb8782880161292d565b9350506040612afc878288016129dd565b925050606085013567ffffffffffffffff811115612b1d57612b1c6137b0565b5b612b2987828801612981565b91505092959194509250565b60008060408385031215612b4c57612b4b6137b5565b5b6000612b5a8582860161292d565b9250506020612b6b85828601612942565b9150509250929050565b60008060408385031215612b8c57612b8b6137b5565b5b6000612b9a8582860161292d565b9250506020612bab858286016129dd565b9150509250929050565b600060208284031215612bcb57612bca6137b5565b5b6000612bd984828501612957565b91505092915050565b600060208284031215612bf857612bf76137b5565b5b6000612c068482850161296c565b91505092915050565b600060208284031215612c2557612c246137b5565b5b600082013567ffffffffffffffff811115612c4357612c426137b0565b5b612c4f848285016129af565b91505092915050565b600060208284031215612c6e57612c6d6137b5565b5b6000612c7c848285016129dd565b91505092915050565b612c8e816134f9565b82525050565b612c9d8161350b565b82525050565b6000612cae826133fb565b612cb88185613411565b9350612cc881856020860161357c565b612cd1816137ba565b840191505092915050565b6000612ce782613406565b612cf18185613422565b9350612d0181856020860161357c565b612d0a816137ba565b840191505092915050565b6000612d2082613406565b612d2a8185613433565b9350612d3a81856020860161357c565b80840191505092915050565b6000612d53601583613422565b9150612d5e826137cb565b602082019050919050565b6000612d76602b83613422565b9150612d81826137f4565b604082019050919050565b6000612d99603283613422565b9150612da482613843565b604082019050919050565b6000612dbc602683613422565b9150612dc782613892565b604082019050919050565b6000612ddf601c83613422565b9150612dea826138e1565b602082019050919050565b6000612e02602483613422565b9150612e0d8261390a565b604082019050919050565b6000612e25601983613422565b9150612e3082613959565b602082019050919050565b6000612e48602c83613422565b9150612e5382613982565b604082019050919050565b6000612e6b603883613422565b9150612e76826139d1565b604082019050919050565b6000612e8e602a83613422565b9150612e9982613a20565b604082019050919050565b6000612eb1602983613422565b9150612ebc82613a6f565b604082019050919050565b6000612ed4602083613422565b9150612edf82613abe565b602082019050919050565b6000612ef7602c83613422565b9150612f0282613ae7565b604082019050919050565b6000612f1a602083613422565b9150612f2582613b36565b602082019050919050565b6000612f3d602983613422565b9150612f4882613b5f565b604082019050919050565b6000612f60602f83613422565b9150612f6b82613bae565b604082019050919050565b6000612f83602183613422565b9150612f8e82613bfd565b604082019050919050565b6000612fa6603183613422565b9150612fb182613c4c565b604082019050919050565b6000612fc9601283613422565b9150612fd482613c9b565b602082019050919050565b6000612fec602c83613422565b9150612ff782613cc4565b604082019050919050565b61300b81613563565b82525050565b600061301d8285612d15565b91506130298284612d15565b91508190509392505050565b600060208201905061304a6000830184612c85565b92915050565b60006080820190506130656000830187612c85565b6130726020830186612c85565b61307f6040830185613002565b81810360608301526130918184612ca3565b905095945050505050565b60006020820190506130b16000830184612c94565b92915050565b600060208201905081810360008301526130d18184612cdc565b905092915050565b600060208201905081810360008301526130f281612d46565b9050919050565b6000602082019050818103600083015261311281612d69565b9050919050565b6000602082019050818103600083015261313281612d8c565b9050919050565b6000602082019050818103600083015261315281612daf565b9050919050565b6000602082019050818103600083015261317281612dd2565b9050919050565b6000602082019050818103600083015261319281612df5565b9050919050565b600060208201905081810360008301526131b281612e18565b9050919050565b600060208201905081810360008301526131d281612e3b565b9050919050565b600060208201905081810360008301526131f281612e5e565b9050919050565b6000602082019050818103600083015261321281612e81565b9050919050565b6000602082019050818103600083015261323281612ea4565b9050919050565b6000602082019050818103600083015261325281612ec7565b9050919050565b6000602082019050818103600083015261327281612eea565b9050919050565b6000602082019050818103600083015261329281612f0d565b9050919050565b600060208201905081810360008301526132b281612f30565b9050919050565b600060208201905081810360008301526132d281612f53565b9050919050565b600060208201905081810360008301526132f281612f76565b9050919050565b6000602082019050818103600083015261331281612f99565b9050919050565b6000602082019050818103600083015261333281612fbc565b9050919050565b6000602082019050818103600083015261335281612fdf565b9050919050565b600060208201905061336e6000830184613002565b92915050565b600061337e61338f565b905061338a82826135e1565b919050565b6000604051905090565b600067ffffffffffffffff8211156133b4576133b3613777565b5b6133bd826137ba565b9050602081019050919050565b600067ffffffffffffffff8211156133e5576133e4613777565b5b6133ee826137ba565b9050602081019050919050565b600081519050919050565b600081519050919050565b600082825260208201905092915050565b600082825260208201905092915050565b600081905092915050565b600061344982613563565b915061345483613563565b9250827fffffffffffffffffffffffffffffffffffffffffffffffffffffffffffffffff038211156134895761348861368c565b5b828201905092915050565b600061349f82613563565b91506134aa83613563565b9250826134ba576134b96136bb565b5b828204905092915050565b60006134d082613563565b91506134db83613563565b9250828210156134ee576134ed61368c565b5b828203905092915050565b600061350482613543565b9050919050565b60008115159050919050565b60007fffffffff0000000000000000000000000000000000000000000000000000000082169050919050565b600073ffffffffffffffffffffffffffffffffffffffff82169050919050565b6000819050919050565b82818337600083830152505050565b60005b8381101561359a57808201518184015260208101905061357f565b838111156135a9576000848401525b50505050565b600060028204905060018216806135c757607f821691505b602082108114156135db576135da6136ea565b5b50919050565b6135ea826137ba565b810181811067ffffffffffffffff8211171561360957613608613777565b5b80604052505050565b600061361d82613563565b91507fffffffffffffffffffffffffffffffffffffffffffffffffffffffffffffffff8214156136505761364f61368c565b5b600182019050919050565b600061366682613563565b915061367183613563565b925082613681576136806136bb565b5b828206905092915050565b7f4e487b7100000000000000000000000000000000000000000000000000000000600052601160045260246000fd5b7f4e487b7100000000000000000000000000000000000000000000000000000000600052601260045260246000fd5b7f4e487b7100000000000000000000000000000000000000000000000000000000600052602260045260246000fd5b7f4e487b7100000000000000000000000000000000000000000000000000000000600052603160045260246000fd5b7f4e487b7100000000000000000000000000000000000000000000000000000000600052603260045260246000fd5b7f4e487b7100000000000000000000000000000000000000000000000000000000600052604160045260246000fd5b600080fd5b600080fd5b600080fd5b600080fd5b6000601f19601f8301169050919050565b7f53616c6520686173206e6f7420737461727465642e0000000000000000000000600082015250565b7f455243373231456e756d657261626c653a206f776e657220696e646578206f7560008201527f74206f6620626f756e6473000000000000000000000000000000000000000000602082015250565b7f4552433732313a207472616e7366657220746f206e6f6e20455243373231526560008201527f63656976657220696d706c656d656e7465720000000000000000000000000000602082015250565b7f4f776e61626c653a206e6577206f776e657220697320746865207a65726f206160008201527f6464726573730000000000000000000000000000000000000000000000000000602082015250565b7f4552433732313a20746f6b656e20616c7265616479206d696e74656400000000600082015250565b7f4552433732313a207472616e7366657220746f20746865207a65726f2061646460008201527f7265737300000000000000000000000000000000000000000000000000000000602082015250565b7f4552433732313a20617070726f766520746f2063616c6c657200000000000000600082015250565b7f4552433732313a206f70657261746f7220717565727920666f72206e6f6e657860008201527f697374656e7420746f6b656e0000000000000000000000000000000000000000602082015250565b7f4552433732313a20617070726f76652063616c6c6572206973206e6f74206f7760008201527f6e6572206e6f7220617070726f76656420666f7220616c6c0000000000000000602082015250565b7f4552433732313a2062616c616e636520717565727920666f7220746865207a6560008201527f726f206164647265737300000000000000000000000000000000000000000000602082015250565b7f4552433732313a206f776e657220717565727920666f72206e6f6e657869737460008201527f656e7420746f6b656e0000000000000000000000000000000000000000000000602082015250565b7f4552433732313a206d696e7420746f20746865207a65726f2061646472657373600082015250565b7f4552433732313a20617070726f76656420717565727920666f72206e6f6e657860008201527f697374656e7420746f6b656e0000000000000000000000000000000000000000602082015250565b7f4f776e61626c653a2063616c6c6572206973206e6f7420746865206f776e6572600082015250565b7f4552433732313a207472616e73666572206f6620746f6b656e2074686174206960008201527f73206e6f74206f776e0000000000000000000000000000000000000000000000602082015250565b7f4552433732314d657461646174613a2055524920717565727920666f72206e6f60008201527f6e6578697374656e7420746f6b656e0000000000000000000000000000000000602082015250565b7f4552433732313a20617070726f76616c20746f2063757272656e74206f776e6560008201527f7200000000000000000000000000000000000000000000000000000000000000602082015250565b7f4552433732313a207472616e736665722063616c6c6572206973206e6f74206f60008201527f776e6572206e6f7220617070726f766564000000000000000000000000000000602082015250565b7f53616c65206861732066696e69736865642e0000000000000000000000000000600082015250565b7f455243373231456e756d657261626c653a20676c6f62616c20696e646578206f60008201527f7574206f6620626f756e64730000000000000000000000000000000000000000602082015250565b613d1c816134f9565b8114613d2757600080fd5b50565b613d338161350b565b8114613d3e57600080fd5b50565b613d4a81613517565b8114613d5557600080fd5b50565b613d6181613563565b8114613d6c57600080fd5b5056fea2646970667358221220f7e3545aa8da79026937d1815b806cb12ff7e4650655624b02042667fc50960e64736f6c6343000807003368747470733a2f2f697066732e696f2f697066732f516d6133345a6d6f37335a6d70355a36427278664d387a48514d7869503359616b75655656666869387844436274",
  "immutableReferences": {},
  "source": "// SPDX-License-Identifier: UNLICENSED\npragma solidity ^0.8.0;\n\nimport \"@openzeppelin/contracts/token/ERC721/ERC721.sol\";\nimport \"@openzeppelin/contracts/access/Ownable.sol\";\nimport \"@openzeppelin/contracts/token/ERC721/extensions/ERC721Enumerable.sol\";\nimport \"@openzeppelin/contracts/token/ERC721/extensions/ERC721URIStorage.sol\";\nimport \"@openzeppelin/contracts/utils/Strings.sol\";\n\n\ncontract NFTAirdrop is ERC721, Ownable, ERC721Enumerable, ERC721URIStorage {\n\n  using Strings for uint256;\n\n  mapping(uint => address) public nftOwners;\n  uint public saleEnd;\n  uint public saleStart;\n  uint public nftsSale;\n  uint public price;\n  string public baseURI = \"https://ipfs.io/ipfs/Qma34Zmo73Zmp5Z6BrxfM8zHQMxiP3YakueVVfhi8xDCbt\";\n\n  uint public MAX_MINT = 10000;\n\n  constructor(uint _saleStart, uint _saleEnd, uint _price) ERC721(\"DigiDonuts\", \"DD\") {\n    saleStart = _saleStart;\n    saleEnd = _saleEnd;\n    price = _price;\n  }\n\n  function setSaleStart(uint _newStart) public onlyOwner {\n    saleStart = _newStart;\n  }\n\n  function setSaleEnd(uint _newEnd) public onlyOwner {\n    saleEnd = _newEnd;\n  }\n\n  function changeMaxMint(uint _newMax) public onlyOwner {\n    MAX_MINT = _newMax;\n  }\n\n  function setPrice(uint _newPrice) public onlyOwner {\n    price = _newPrice;\n  }\n\n  function mint() public payable {\n    require(block.timestamp >= saleStart, \"Sale has not started.\");\n    require(block.timestamp < saleEnd, \"Sale has finished.\");\n    nftsSale++;\n    _safeMint(msg.sender, nftsSale-1);\n  }\n  \n  function _beforeTokenTransfer(address from, address to, uint256 tokenId)\n      internal\n      override(ERC721, ERC721Enumerable)\n  {\n      super._beforeTokenTransfer(from, to, tokenId);\n  }\n\n  function _burn(uint256 tokenId) internal override(ERC721, ERC721URIStorage) {\n      super._burn(tokenId);\n  }\n\n  function setBaseURI(string memory baseURI_) public onlyOwner {\n      baseURI = baseURI_;\n  }\n\n  function _baseURI() internal view override returns (string memory) {\n      return baseURI;\n  }\n\n  function tokenURI(uint256 tokenId)\n      public\n      view\n      override(ERC721, ERC721URIStorage)\n      returns (string memory)\n  {\n    require(\n      _exists(tokenId),\n      \"ERC721Metadata: URI query for nonexistent token\"\n    );\n\n    string memory currentBaseURI = _baseURI();\n    return bytes(currentBaseURI).length > 0\n        ? string(abi.encodePacked(currentBaseURI, tokenId.toString()))\n        : \"\";\n  }\n\n  function supportsInterface(bytes4 interfaceId)\n      public\n      view\n      override(ERC721, ERC721Enumerable)\n      returns (bool)\n  {\n      return super.supportsInterface(interfaceId);\n  }\n\n  receive () payable external {}\n\n  fallback () external {}\n\n}",
  "sourcePath": "/Users/israeladelaja/Desktop/TamaNFT/contracts/TamaNFT.sol",
  "compiler": {
    "name": "solc",
    "version": "0.8.7+commit.e28d00a7.Emscripten.clang"
  },
  "schemaVersion": "3.4.2",
  "updatedAt": "2021-09-16T04:12:48.530Z",
  "devdoc": {
    "kind": "dev",
    "methods": {
      "approve(address,uint256)": {
        "details": "See {IERC721-approve}."
      },
      "balanceOf(address)": {
        "details": "See {IERC721-balanceOf}."
      },
      "getApproved(uint256)": {
        "details": "See {IERC721-getApproved}."
      },
      "isApprovedForAll(address,address)": {
        "details": "See {IERC721-isApprovedForAll}."
      },
      "name()": {
        "details": "See {IERC721Metadata-name}."
      },
      "owner()": {
        "details": "Returns the address of the current owner."
      },
      "ownerOf(uint256)": {
        "details": "See {IERC721-ownerOf}."
      },
      "renounceOwnership()": {
        "details": "Leaves the contract without owner. It will not be possible to call `onlyOwner` functions anymore. Can only be called by the current owner. NOTE: Renouncing ownership will leave the contract without an owner, thereby removing any functionality that is only available to the owner."
      },
      "safeTransferFrom(address,address,uint256)": {
        "details": "See {IERC721-safeTransferFrom}."
      },
      "safeTransferFrom(address,address,uint256,bytes)": {
        "details": "See {IERC721-safeTransferFrom}."
      },
      "setApprovalForAll(address,bool)": {
        "details": "See {IERC721-setApprovalForAll}."
      },
      "symbol()": {
        "details": "See {IERC721Metadata-symbol}."
      },
      "tokenByIndex(uint256)": {
        "details": "See {IERC721Enumerable-tokenByIndex}."
      },
      "tokenOfOwnerByIndex(address,uint256)": {
        "details": "See {IERC721Enumerable-tokenOfOwnerByIndex}."
      },
      "totalSupply()": {
        "details": "See {IERC721Enumerable-totalSupply}."
      },
      "transferFrom(address,address,uint256)": {
        "details": "See {IERC721-transferFrom}."
      },
      "transferOwnership(address)": {
        "details": "Transfers ownership of the contract to a new account (`newOwner`). Can only be called by the current owner."
      }
    },
    "version": 1
  },
  "userdoc": {
    "kind": "user",
    "methods": {},
    "version": 1
  }
}