{
  "contractName": "TamaNFT",
  "abi": [
    {
      "inputs": [
        {
          "internalType": "uint256",
          "name": "_saleStart",
          "type": "uint256"
        }
      ],
      "stateMutability": "nonpayable",
      "type": "constructor"
    },
    {
      "anonymous": false,
      "inputs": [
        {
          "indexed": true,
          "internalType": "address",
          "name": "owner",
          "type": "address"
        },
        {
          "indexed": true,
          "internalType": "address",
          "name": "approved",
          "type": "address"
        },
        {
          "indexed": true,
          "internalType": "uint256",
          "name": "tokenId",
          "type": "uint256"
        }
      ],
      "name": "Approval",
      "type": "event"
    },
    {
      "anonymous": false,
      "inputs": [
        {
          "indexed": true,
          "internalType": "address",
          "name": "owner",
          "type": "address"
        },
        {
          "indexed": true,
          "internalType": "address",
          "name": "operator",
          "type": "address"
        },
        {
          "indexed": false,
          "internalType": "bool",
          "name": "approved",
          "type": "bool"
        }
      ],
      "name": "ApprovalForAll",
      "type": "event"
    },
    {
      "anonymous": false,
      "inputs": [
        {
          "indexed": true,
          "internalType": "address",
          "name": "previousOwner",
          "type": "address"
        },
        {
          "indexed": true,
          "internalType": "address",
          "name": "newOwner",
          "type": "address"
        }
      ],
      "name": "OwnershipTransferred",
      "type": "event"
    },
    {
      "anonymous": false,
      "inputs": [
        {
          "indexed": true,
          "internalType": "address",
          "name": "from",
          "type": "address"
        },
        {
          "indexed": true,
          "internalType": "address",
          "name": "to",
          "type": "address"
        },
        {
          "indexed": true,
          "internalType": "uint256",
          "name": "tokenId",
          "type": "uint256"
        }
      ],
      "name": "Transfer",
      "type": "event"
    },
    {
      "stateMutability": "nonpayable",
      "type": "fallback"
    },
    {
      "inputs": [],
      "name": "MAX_INDI_MINT",
      "outputs": [
        {
          "internalType": "uint256",
          "name": "",
          "type": "uint256"
        }
      ],
      "stateMutability": "view",
      "type": "function",
      "constant": true
    },
    {
      "inputs": [],
      "name": "MAX_MINT",
      "outputs": [
        {
          "internalType": "uint256",
          "name": "",
          "type": "uint256"
        }
      ],
      "stateMutability": "view",
      "type": "function",
      "constant": true
    },
    {
      "inputs": [
        {
          "internalType": "uint256",
          "name": "",
          "type": "uint256"
        }
      ],
      "name": "airdropTo",
      "outputs": [
        {
          "internalType": "address",
          "name": "",
          "type": "address"
        }
      ],
      "stateMutability": "view",
      "type": "function",
      "constant": true
    },
    {
      "inputs": [
        {
          "internalType": "address",
          "name": "to",
          "type": "address"
        },
        {
          "internalType": "uint256",
          "name": "tokenId",
          "type": "uint256"
        }
      ],
      "name": "approve",
      "outputs": [],
      "stateMutability": "nonpayable",
      "type": "function"
    },
    {
      "inputs": [
        {
          "internalType": "address",
          "name": "owner",
          "type": "address"
        }
      ],
      "name": "balanceOf",
      "outputs": [
        {
          "internalType": "uint256",
          "name": "",
          "type": "uint256"
        }
      ],
      "stateMutability": "view",
      "type": "function",
      "constant": true
    },
    {
      "inputs": [],
      "name": "baseURI",
      "outputs": [
        {
          "internalType": "string",
          "name": "",
          "type": "string"
        }
      ],
      "stateMutability": "view",
      "type": "function",
      "constant": true
    },
    {
      "inputs": [
        {
          "internalType": "uint256",
          "name": "tokenId",
          "type": "uint256"
        }
      ],
      "name": "getApproved",
      "outputs": [
        {
          "internalType": "address",
          "name": "",
          "type": "address"
        }
      ],
      "stateMutability": "view",
      "type": "function",
      "constant": true
    },
    {
      "inputs": [
        {
          "internalType": "address",
          "name": "owner",
          "type": "address"
        },
        {
          "internalType": "address",
          "name": "operator",
          "type": "address"
        }
      ],
      "name": "isApprovedForAll",
      "outputs": [
        {
          "internalType": "bool",
          "name": "",
          "type": "bool"
        }
      ],
      "stateMutability": "view",
      "type": "function",
      "constant": true
    },
    {
      "inputs": [],
      "name": "name",
      "outputs": [
        {
          "internalType": "string",
          "name": "",
          "type": "string"
        }
      ],
      "stateMutability": "view",
      "type": "function",
      "constant": true
    },
    {
      "inputs": [
        {
          "internalType": "uint256",
          "name": "",
          "type": "uint256"
        }
      ],
      "name": "nftOwners",
      "outputs": [
        {
          "internalType": "address",
          "name": "",
          "type": "address"
        }
      ],
      "stateMutability": "view",
      "type": "function",
      "constant": true
    },
    {
      "inputs": [],
      "name": "nftsSale",
      "outputs": [
        {
          "internalType": "uint256",
          "name": "",
          "type": "uint256"
        }
      ],
      "stateMutability": "view",
      "type": "function",
      "constant": true
    },
    {
      "inputs": [],
      "name": "owner",
      "outputs": [
        {
          "internalType": "address",
          "name": "",
          "type": "address"
        }
      ],
      "stateMutability": "view",
      "type": "function",
      "constant": true
    },
    {
      "inputs": [
        {
          "internalType": "uint256",
          "name": "tokenId",
          "type": "uint256"
        }
      ],
      "name": "ownerOf",
      "outputs": [
        {
          "internalType": "address",
          "name": "",
          "type": "address"
        }
      ],
      "stateMutability": "view",
      "type": "function",
      "constant": true
    },
    {
      "inputs": [],
      "name": "price",
      "outputs": [
        {
          "internalType": "uint256",
          "name": "",
          "type": "uint256"
        }
      ],
      "stateMutability": "view",
      "type": "function",
      "constant": true
    },
    {
      "inputs": [],
      "name": "renounceOwnership",
      "outputs": [],
      "stateMutability": "nonpayable",
      "type": "function"
    },
    {
      "inputs": [
        {
          "internalType": "address",
          "name": "from",
          "type": "address"
        },
        {
          "internalType": "address",
          "name": "to",
          "type": "address"
        },
        {
          "internalType": "uint256",
          "name": "tokenId",
          "type": "uint256"
        }
      ],
      "name": "safeTransferFrom",
      "outputs": [],
      "stateMutability": "nonpayable",
      "type": "function"
    },
    {
      "inputs": [
        {
          "internalType": "address",
          "name": "from",
          "type": "address"
        },
        {
          "internalType": "address",
          "name": "to",
          "type": "address"
        },
        {
          "internalType": "uint256",
          "name": "tokenId",
          "type": "uint256"
        },
        {
          "internalType": "bytes",
          "name": "_data",
          "type": "bytes"
        }
      ],
      "name": "safeTransferFrom",
      "outputs": [],
      "stateMutability": "nonpayable",
      "type": "function"
    },
    {
      "inputs": [],
      "name": "saleStart",
      "outputs": [
        {
          "internalType": "uint256",
          "name": "",
          "type": "uint256"
        }
      ],
      "stateMutability": "view",
      "type": "function",
      "constant": true
    },
    {
      "inputs": [
        {
          "internalType": "address",
          "name": "operator",
          "type": "address"
        },
        {
          "internalType": "bool",
          "name": "approved",
          "type": "bool"
        }
      ],
      "name": "setApprovalForAll",
      "outputs": [],
      "stateMutability": "nonpayable",
      "type": "function"
    },
    {
      "inputs": [],
      "name": "symbol",
      "outputs": [
        {
          "internalType": "string",
          "name": "",
          "type": "string"
        }
      ],
      "stateMutability": "view",
      "type": "function",
      "constant": true
    },
    {
      "inputs": [
        {
          "internalType": "uint256",
          "name": "index",
          "type": "uint256"
        }
      ],
      "name": "tokenByIndex",
      "outputs": [
        {
          "internalType": "uint256",
          "name": "",
          "type": "uint256"
        }
      ],
      "stateMutability": "view",
      "type": "function",
      "constant": true
    },
    {
      "inputs": [
        {
          "internalType": "address",
          "name": "owner",
          "type": "address"
        },
        {
          "internalType": "uint256",
          "name": "index",
          "type": "uint256"
        }
      ],
      "name": "tokenOfOwnerByIndex",
      "outputs": [
        {
          "internalType": "uint256",
          "name": "",
          "type": "uint256"
        }
      ],
      "stateMutability": "view",
      "type": "function",
      "constant": true
    },
    {
      "inputs": [],
      "name": "totalSupply",
      "outputs": [
        {
          "internalType": "uint256",
          "name": "",
          "type": "uint256"
        }
      ],
      "stateMutability": "view",
      "type": "function",
      "constant": true
    },
    {
      "inputs": [
        {
          "internalType": "address",
          "name": "from",
          "type": "address"
        },
        {
          "internalType": "address",
          "name": "to",
          "type": "address"
        },
        {
          "internalType": "uint256",
          "name": "tokenId",
          "type": "uint256"
        }
      ],
      "name": "transferFrom",
      "outputs": [],
      "stateMutability": "nonpayable",
      "type": "function"
    },
    {
      "inputs": [
        {
          "internalType": "address",
          "name": "newOwner",
          "type": "address"
        }
      ],
      "name": "transferOwnership",
      "outputs": [],
      "stateMutability": "nonpayable",
      "type": "function"
    },
    {
      "stateMutability": "payable",
      "type": "receive",
      "payable": true
    },
    {
      "inputs": [
        {
          "internalType": "uint256",
          "name": "_newStart",
          "type": "uint256"
        }
      ],
      "name": "setSaleStart",
      "outputs": [],
      "stateMutability": "nonpayable",
      "type": "function"
    },
    {
      "inputs": [
        {
          "internalType": "uint256",
          "name": "_newMax",
          "type": "uint256"
        }
      ],
      "name": "changeMaxMint",
      "outputs": [],
      "stateMutability": "nonpayable",
      "type": "function"
    },
    {
      "inputs": [
        {
          "internalType": "uint256",
          "name": "_newMax",
          "type": "uint256"
        }
      ],
      "name": "changeMaxIndividualMint",
      "outputs": [],
      "stateMutability": "nonpayable",
      "type": "function"
    },
    {
      "inputs": [
        {
          "internalType": "uint256",
          "name": "_newPrice",
          "type": "uint256"
        }
      ],
      "name": "setPrice",
      "outputs": [],
      "stateMutability": "nonpayable",
      "type": "function"
    },
    {
      "inputs": [
        {
          "internalType": "uint256",
          "name": "_mintAmount",
          "type": "uint256"
        }
      ],
      "name": "mint",
      "outputs": [],
      "stateMutability": "payable",
      "type": "function",
      "payable": true
    },
    {
      "inputs": [
        {
          "internalType": "string",
          "name": "baseURI_",
          "type": "string"
        }
      ],
      "name": "setBaseURI",
      "outputs": [],
      "stateMutability": "nonpayable",
      "type": "function"
    },
    {
      "inputs": [
        {
          "internalType": "uint256",
          "name": "tokenId",
          "type": "uint256"
        }
      ],
      "name": "tokenURI",
      "outputs": [
        {
          "internalType": "string",
          "name": "",
          "type": "string"
        }
      ],
      "stateMutability": "view",
      "type": "function",
      "constant": true
    },
    {
      "inputs": [
        {
          "internalType": "bytes4",
          "name": "interfaceId",
          "type": "bytes4"
        }
      ],
      "name": "supportsInterface",
      "outputs": [
        {
          "internalType": "bool",
          "name": "",
          "type": "bool"
        }
      ],
      "stateMutability": "view",
      "type": "function",
      "constant": true
    }
  ],
  "bytecode": "0x60806040526658d15e17628000600f556040518060800160405280604b8152602001620059a6604b91396010908051906020019062000040929190620010e6565b506127106012556014601355604051806101e001604052807392579f9b193a1d41ae65fbf187b6adb058f583cf73ffffffffffffffffffffffffffffffffffffffff1673ffffffffffffffffffffffffffffffffffffffff16815260200173498b49e51aae848b1ff7b1f1c56330c5241d8f8573ffffffffffffffffffffffffffffffffffffffff1673ffffffffffffffffffffffffffffffffffffffff168152602001735daf1d7271b9eaa4bdbed253314b293bc8ea3d1f73ffffffffffffffffffffffffffffffffffffffff1673ffffffffffffffffffffffffffffffffffffffff16815260200173a684bdf5db1b316202f91fda2d590b2d538d8eaa73ffffffffffffffffffffffffffffffffffffffff1673ffffffffffffffffffffffffffffffffffffffff16815260200173edc681f89333fab7c7dde19db2a40c4390a05d4673ffffffffffffffffffffffffffffffffffffffff1673ffffffffffffffffffffffffffffffffffffffff168152602001734e55d9aa0c8a9464c2a63cf3d0818fe09fc9e17b73ffffffffffffffffffffffffffffffffffffffff1673ffffffffffffffffffffffffffffffffffffffff1681526020017382372e5ef6648331a8dbce24d55dd305fb5d9ee373ffffffffffffffffffffffffffffffffffffffff1673ffffffffffffffffffffffffffffffffffffffff16815260200173732657b1746a95d82c80e8512e3a11b48acfd16973ffffffffffffffffffffffffffffffffffffffff1673ffffffffffffffffffffffffffffffffffffffff16815260200173699ce2ca25fa89226c6d441fba8377dd90ba3e4a73ffffffffffffffffffffffffffffffffffffffff1673ffffffffffffffffffffffffffffffffffffffff16815260200173d7779bb0e52e60413147df10eb5f6c52ffda1ad173ffffffffffffffffffffffffffffffffffffffff1673ffffffffffffffffffffffffffffffffffffffff1681526020017362756de5b5a170417c716695918f2253ff901bb873ffffffffffffffffffffffffffffffffffffffff1673ffffffffffffffffffffffffffffffffffffffff16815260200173c03fe5a6a856adcb1b2a1f3080d44888f47385cd73ffffffffffffffffffffffffffffffffffffffff1673ffffffffffffffffffffffffffffffffffffffff1681526020017348f46281777fb384b89ecdfbca3283ba304d620773ffffffffffffffffffffffffffffffffffffffff1673ffffffffffffffffffffffffffffffffffffffff16815260200173531ab8b3ae8e6777c7054fc1939f54e910d0bb7873ffffffffffffffffffffffffffffffffffffffff1673ffffffffffffffffffffffffffffffffffffffff168152602001737b05829b90a6e7928b81bc419b171179d4b4201b73ffffffffffffffffffffffffffffffffffffffff1673ffffffffffffffffffffffffffffffffffffffff16815250601490600f6200048292919062001177565b506000601560006101000a81548160ff021916908315150217905550348015620004ab57600080fd5b50604051620059f1380380620059f18339818101604052810190620004d1919062001265565b6040518060400160405280601181526020017f54616d61204d6f6e7374657220436c75620000000000000000000000000000008152506040518060400160405280600481526020017f54414d4100000000000000000000000000000000000000000000000000000000815250816000908051906020019062000555929190620010e6565b5080600190805190602001906200056e929190620010e6565b50505062000591620005856200060660201b60201c565b6200060e60201b60201c565b80600d8190555060005b6014811015620005fe57620005e87351b03278e8fdc2c3f123d0e460bb8f942e4a9fcf6001620005d0620006d460201b60201c565b620005dc9190620012c6565b620006e160201b60201c565b8080620005f59062001323565b9150506200059b565b505062001871565b600033905090565b6000600660009054906101000a900473ffffffffffffffffffffffffffffffffffffffff16905081600660006101000a81548173ffffffffffffffffffffffffffffffffffffffff021916908373ffffffffffffffffffffffffffffffffffffffff1602179055508173ffffffffffffffffffffffffffffffffffffffff168173ffffffffffffffffffffffffffffffffffffffff167f8be0079c531659141344cd1fd0a4f28419497f9722a3daafe3b4186f6b6457e060405160405180910390a35050565b6000600980549050905090565b620007038282604051806020016040528060008152506200070760201b60201c565b5050565b6200071983836200077560201b60201c565b6200072e60008484846200095b60201b60201c565b62000770576040517f08c379a00000000000000000000000000000000000000000000000000000000081526004016200076790620013f8565b60405180910390fd5b505050565b600073ffffffffffffffffffffffffffffffffffffffff168273ffffffffffffffffffffffffffffffffffffffff161415620007e8576040517f08c379a0000000000000000000000000000000000000000000000000000000008152600401620007df906200146a565b60405180910390fd5b620007f98162000b1560201b60201c565b156200083c576040517f08c379a00000000000000000000000000000000000000000000000000000000081526004016200083390620014dc565b60405180910390fd5b620008506000838362000b8160201b60201c565b6001600360008473ffffffffffffffffffffffffffffffffffffffff1673ffffffffffffffffffffffffffffffffffffffff1681526020019081526020016000206000828254620008a29190620012c6565b92505081905550816002600083815260200190815260200160002060006101000a81548173ffffffffffffffffffffffffffffffffffffffff021916908373ffffffffffffffffffffffffffffffffffffffff160217905550808273ffffffffffffffffffffffffffffffffffffffff16600073ffffffffffffffffffffffffffffffffffffffff167fddf252ad1be2c89b69c2b068fc378daa952ba7f163c4a11628f55a4df523b3ef60405160405180910390a45050565b6000620009898473ffffffffffffffffffffffffffffffffffffffff1662000b9e60201b620019381760201c565b1562000b08578373ffffffffffffffffffffffffffffffffffffffff1663150b7a02620009bb6200060660201b60201c565b8786866040518563ffffffff1660e01b8152600401620009df9493929190620015f8565b602060405180830381600087803b158015620009fa57600080fd5b505af192505050801562000a2e57506040513d601f19601f8201168201806040525081019062000a2b9190620016a9565b60015b62000ab7573d806000811462000a61576040519150601f19603f3d011682016040523d82523d6000602084013e62000a66565b606091505b5060008151141562000aaf576040517f08c379a000000000000000000000000000000000000000000000000000000000815260040162000aa690620013f8565b60405180910390fd5b805181602001fd5b63150b7a0260e01b7bffffffffffffffffffffffffffffffffffffffffffffffffffffffff1916817bffffffffffffffffffffffffffffffffffffffffffffffffffffffff19161491505062000b0d565b600190505b949350505050565b60008073ffffffffffffffffffffffffffffffffffffffff166002600084815260200190815260200160002060009054906101000a900473ffffffffffffffffffffffffffffffffffffffff1673ffffffffffffffffffffffffffffffffffffffff1614159050919050565b62000b9983838362000bb160201b6200194b1760201c565b505050565b600080823b905060008111915050919050565b62000bc983838362000cf860201b62001a5f1760201c565b600073ffffffffffffffffffffffffffffffffffffffff168373ffffffffffffffffffffffffffffffffffffffff16141562000c165762000c108162000cfd60201b60201c565b62000c5e565b8173ffffffffffffffffffffffffffffffffffffffff168373ffffffffffffffffffffffffffffffffffffffff161462000c5d5762000c5c838262000d4660201b60201c565b5b5b600073ffffffffffffffffffffffffffffffffffffffff168273ffffffffffffffffffffffffffffffffffffffff16141562000cab5762000ca58162000ec360201b60201c565b62000cf3565b8273ffffffffffffffffffffffffffffffffffffffff168273ffffffffffffffffffffffffffffffffffffffff161462000cf25762000cf1828262000f9f60201b60201c565b5b5b505050565b505050565b600980549050600a600083815260200190815260200160002081905550600981908060018154018082558091505060019003906000526020600020016000909190919091505550565b6000600162000d60846200102b60201b62000f5a1760201c565b62000d6c9190620016db565b905060006008600084815260200190815260200160002054905081811462000e52576000600760008673ffffffffffffffffffffffffffffffffffffffff1673ffffffffffffffffffffffffffffffffffffffff168152602001908152602001600020600084815260200190815260200160002054905080600760008773ffffffffffffffffffffffffffffffffffffffff1673ffffffffffffffffffffffffffffffffffffffff168152602001908152602001600020600084815260200190815260200160002081905550816008600083815260200190815260200160002081905550505b6008600084815260200190815260200160002060009055600760008573ffffffffffffffffffffffffffffffffffffffff1673ffffffffffffffffffffffffffffffffffffffff16815260200190815260200160002060008381526020019081526020016000206000905550505050565b6000600160098054905062000ed99190620016db565b90506000600a600084815260200190815260200160002054905060006009838154811062000f0c5762000f0b62001716565b5b90600052602060002001549050806009838154811062000f315762000f3062001716565b5b906000526020600020018190555081600a600083815260200190815260200160002081905550600a600085815260200190815260200160002060009055600980548062000f835762000f8262001745565b5b6001900381819060005260206000200160009055905550505050565b600062000fb7836200102b60201b62000f5a1760201c565b905081600760008573ffffffffffffffffffffffffffffffffffffffff1673ffffffffffffffffffffffffffffffffffffffff168152602001908152602001600020600083815260200190815260200160002081905550806008600084815260200190815260200160002081905550505050565b60008073ffffffffffffffffffffffffffffffffffffffff168273ffffffffffffffffffffffffffffffffffffffff1614156200109f576040517f08c379a00000000000000000000000000000000000000000000000000000000081526004016200109690620017ea565b60405180910390fd5b600360008373ffffffffffffffffffffffffffffffffffffffff1673ffffffffffffffffffffffffffffffffffffffff168152602001908152602001600020549050919050565b828054620010f4906200183b565b90600052602060002090601f01602090048101928262001118576000855562001164565b82601f106200113357805160ff191683800117855562001164565b8280016001018555821562001164579182015b828111156200116357825182559160200191906001019062001146565b5b50905062001173919062001206565b5090565b828054828255906000526020600020908101928215620011f3579160200282015b82811115620011f25782518260006101000a81548173ffffffffffffffffffffffffffffffffffffffff021916908373ffffffffffffffffffffffffffffffffffffffff1602179055509160200191906001019062001198565b5b50905062001202919062001206565b5090565b5b808211156200122157600081600090555060010162001207565b5090565b600080fd5b6000819050919050565b6200123f816200122a565b81146200124b57600080fd5b50565b6000815190506200125f8162001234565b92915050565b6000602082840312156200127e576200127d62001225565b5b60006200128e848285016200124e565b91505092915050565b7f4e487b7100000000000000000000000000000000000000000000000000000000600052601160045260246000fd5b6000620012d3826200122a565b9150620012e0836200122a565b9250827fffffffffffffffffffffffffffffffffffffffffffffffffffffffffffffffff0382111562001318576200131762001297565b5b828201905092915050565b600062001330826200122a565b91507fffffffffffffffffffffffffffffffffffffffffffffffffffffffffffffffff82141562001366576200136562001297565b5b600182019050919050565b600082825260208201905092915050565b7f4552433732313a207472616e7366657220746f206e6f6e20455243373231526560008201527f63656976657220696d706c656d656e7465720000000000000000000000000000602082015250565b6000620013e060328362001371565b9150620013ed8262001382565b604082019050919050565b600060208201905081810360008301526200141381620013d1565b9050919050565b7f4552433732313a206d696e7420746f20746865207a65726f2061646472657373600082015250565b60006200145260208362001371565b91506200145f826200141a565b602082019050919050565b60006020820190508181036000830152620014858162001443565b9050919050565b7f4552433732313a20746f6b656e20616c7265616479206d696e74656400000000600082015250565b6000620014c4601c8362001371565b9150620014d1826200148c565b602082019050919050565b60006020820190508181036000830152620014f781620014b5565b9050919050565b600073ffffffffffffffffffffffffffffffffffffffff82169050919050565b60006200152b82620014fe565b9050919050565b6200153d816200151e565b82525050565b6200154e816200122a565b82525050565b600081519050919050565b600082825260208201905092915050565b60005b838110156200159057808201518184015260208101905062001573565b83811115620015a0576000848401525b50505050565b6000601f19601f8301169050919050565b6000620015c48262001554565b620015d081856200155f565b9350620015e281856020860162001570565b620015ed81620015a6565b840191505092915050565b60006080820190506200160f600083018762001532565b6200161e602083018662001532565b6200162d604083018562001543565b8181036060830152620016418184620015b7565b905095945050505050565b60007fffffffff0000000000000000000000000000000000000000000000000000000082169050919050565b62001683816200164c565b81146200168f57600080fd5b50565b600081519050620016a38162001678565b92915050565b600060208284031215620016c257620016c162001225565b5b6000620016d28482850162001692565b91505092915050565b6000620016e8826200122a565b9150620016f5836200122a565b9250828210156200170b576200170a62001297565b5b828203905092915050565b7f4e487b7100000000000000000000000000000000000000000000000000000000600052603260045260246000fd5b7f4e487b7100000000000000000000000000000000000000000000000000000000600052603160045260246000fd5b7f4552433732313a2062616c616e636520717565727920666f7220746865207a6560008201527f726f206164647265737300000000000000000000000000000000000000000000602082015250565b6000620017d2602a8362001371565b9150620017df8262001774565b604082019050919050565b600060208201905081810360008301526200180581620017c3565b9050919050565b7f4e487b7100000000000000000000000000000000000000000000000000000000600052602260045260246000fd5b600060028204905060018216806200185457607f821691505b602082108114156200186b576200186a6200180c565b5b50919050565b61412580620018816000396000f3fe6080604052600436106101f25760003560e01c8063715018a61161010d578063ab0bcc41116100a0578063bbd94c2f1161006f578063bbd94c2f14610703578063c87b56dd14610740578063e985e9c51461077d578063f0292a03146107ba578063f2fde38b146107e5576101f9565b8063ab0bcc4114610647578063b301878214610672578063b664aedd146106af578063b88d4fde146106da576101f9565b8063a035b1fe116100dc578063a035b1fe146105ac578063a0712d68146105d7578063a22cb465146105f3578063a29b32a01461061c576101f9565b8063715018a6146105165780638da5cb5b1461052d57806391b7f5ed1461055857806395d89b4114610581576101f9565b80632f745c59116101855780636352211e116101545780636352211e1461044857806363ce7d39146104855780636c0360eb146104ae57806370a08231146104d9576101f9565b80632f745c591461037c57806342842e0e146103b95780634f6ccce7146103e257806355f804b31461041f576101f9565b806318160ddd116101c157806318160ddd146102d657806320c63e3b1461030157806323b872dd1461032a5780632f181f5414610353576101f9565b806301ffc9a71461020857806306fdde0314610245578063081812fc14610270578063095ea7b3146102ad576101f9565b366101f957005b34801561020557600080fd5b50005b34801561021457600080fd5b5061022f600480360381019061022a9190612ba9565b61080e565b60405161023c9190612bf1565b60405180910390f35b34801561025157600080fd5b5061025a610820565b6040516102679190612ca5565b60405180910390f35b34801561027c57600080fd5b5061029760048036038101906102929190612cfd565b6108b2565b6040516102a49190612d6b565b60405180910390f35b3480156102b957600080fd5b506102d460048036038101906102cf9190612db2565b610937565b005b3480156102e257600080fd5b506102eb610a4f565b6040516102f89190612e01565b60405180910390f35b34801561030d57600080fd5b5061032860048036038101906103239190612cfd565b610a5c565b005b34801561033657600080fd5b50610351600480360381019061034c9190612e1c565b610ae2565b005b34801561035f57600080fd5b5061037a60048036038101906103759190612cfd565b610b42565b005b34801561038857600080fd5b506103a3600480360381019061039e9190612db2565b610bc8565b6040516103b09190612e01565b60405180910390f35b3480156103c557600080fd5b506103e060048036038101906103db9190612e1c565b610c6d565b005b3480156103ee57600080fd5b5061040960048036038101906104049190612cfd565b610c8d565b6040516104169190612e01565b60405180910390f35b34801561042b57600080fd5b5061044660048036038101906104419190612fa4565b610cfe565b005b34801561045457600080fd5b5061046f600480360381019061046a9190612cfd565b610d94565b60405161047c9190612d6b565b60405180910390f35b34801561049157600080fd5b506104ac60048036038101906104a79190612cfd565b610e46565b005b3480156104ba57600080fd5b506104c3610ecc565b6040516104d09190612ca5565b60405180910390f35b3480156104e557600080fd5b5061050060048036038101906104fb9190612fed565b610f5a565b60405161050d9190612e01565b60405180910390f35b34801561052257600080fd5b5061052b611012565b005b34801561053957600080fd5b5061054261109a565b60405161054f9190612d6b565b60405180910390f35b34801561056457600080fd5b5061057f600480360381019061057a9190612cfd565b6110c4565b005b34801561058d57600080fd5b5061059661114a565b6040516105a39190612ca5565b60405180910390f35b3480156105b857600080fd5b506105c16111dc565b6040516105ce9190612e01565b60405180910390f35b6105f160048036038101906105ec9190612cfd565b6111e2565b005b3480156105ff57600080fd5b5061061a60048036038101906106159190613046565b611498565b005b34801561062857600080fd5b50610631611619565b60405161063e9190612e01565b60405180910390f35b34801561065357600080fd5b5061065c61161f565b6040516106699190612e01565b60405180910390f35b34801561067e57600080fd5b5061069960048036038101906106949190612cfd565b611625565b6040516106a69190612d6b565b60405180910390f35b3480156106bb57600080fd5b506106c4611664565b6040516106d19190612e01565b60405180910390f35b3480156106e657600080fd5b5061070160048036038101906106fc9190613127565b61166a565b005b34801561070f57600080fd5b5061072a60048036038101906107259190612cfd565b6116cc565b6040516107379190612d6b565b60405180910390f35b34801561074c57600080fd5b5061076760048036038101906107629190612cfd565b6116ff565b6040516107749190612ca5565b60405180910390f35b34801561078957600080fd5b506107a4600480360381019061079f91906131aa565b6117a6565b6040516107b19190612bf1565b60405180910390f35b3480156107c657600080fd5b506107cf61183a565b6040516107dc9190612e01565b60405180910390f35b3480156107f157600080fd5b5061080c60048036038101906108079190612fed565b611840565b005b600061081982611a64565b9050919050565b60606000805461082f90613219565b80601f016020809104026020016040519081016040528092919081815260200182805461085b90613219565b80156108a85780601f1061087d576101008083540402835291602001916108a8565b820191906000526020600020905b81548152906001019060200180831161088b57829003601f168201915b5050505050905090565b60006108bd82611ade565b6108fc576040517f08c379a00000000000000000000000000000000000000000000000000000000081526004016108f3906132bd565b60405180910390fd5b6004600083815260200190815260200160002060009054906101000a900473ffffffffffffffffffffffffffffffffffffffff169050919050565b600061094282610d94565b90508073ffffffffffffffffffffffffffffffffffffffff168373ffffffffffffffffffffffffffffffffffffffff1614156109b3576040517f08c379a00000000000000000000000000000000000000000000000000000000081526004016109aa9061334f565b60405180910390fd5b8073ffffffffffffffffffffffffffffffffffffffff166109d2611b4a565b73ffffffffffffffffffffffffffffffffffffffff161480610a015750610a00816109fb611b4a565b6117a6565b5b610a40576040517f08c379a0000000000000000000000000000000000000000000000000000000008152600401610a37906133e1565b60405180910390fd5b610a4a8383611b52565b505050565b6000600980549050905090565b610a64611b4a565b73ffffffffffffffffffffffffffffffffffffffff16610a8261109a565b73ffffffffffffffffffffffffffffffffffffffff1614610ad8576040517f08c379a0000000000000000000000000000000000000000000000000000000008152600401610acf9061344d565b60405180910390fd5b8060128190555050565b610af3610aed611b4a565b82611c0b565b610b32576040517f08c379a0000000000000000000000000000000000000000000000000000000008152600401610b29906134df565b60405180910390fd5b610b3d838383611ce9565b505050565b610b4a611b4a565b73ffffffffffffffffffffffffffffffffffffffff16610b6861109a565b73ffffffffffffffffffffffffffffffffffffffff1614610bbe576040517f08c379a0000000000000000000000000000000000000000000000000000000008152600401610bb59061344d565b60405180910390fd5b80600d8190555050565b6000610bd383610f5a565b8210610c14576040517f08c379a0000000000000000000000000000000000000000000000000000000008152600401610c0b90613571565b60405180910390fd5b600760008473ffffffffffffffffffffffffffffffffffffffff1673ffffffffffffffffffffffffffffffffffffffff168152602001908152602001600020600083815260200190815260200160002054905092915050565b610c888383836040518060200160405280600081525061166a565b505050565b6000610c97610a4f565b8210610cd8576040517f08c379a0000000000000000000000000000000000000000000000000000000008152600401610ccf90613603565b60405180910390fd5b60098281548110610cec57610ceb613623565b5b90600052602060002001549050919050565b610d06611b4a565b73ffffffffffffffffffffffffffffffffffffffff16610d2461109a565b73ffffffffffffffffffffffffffffffffffffffff1614610d7a576040517f08c379a0000000000000000000000000000000000000000000000000000000008152600401610d719061344d565b60405180910390fd5b8060109080519060200190610d90929190612a9a565b5050565b6000806002600084815260200190815260200160002060009054906101000a900473ffffffffffffffffffffffffffffffffffffffff169050600073ffffffffffffffffffffffffffffffffffffffff168173ffffffffffffffffffffffffffffffffffffffff161415610e3d576040517f08c379a0000000000000000000000000000000000000000000000000000000008152600401610e34906136c4565b60405180910390fd5b80915050919050565b610e4e611b4a565b73ffffffffffffffffffffffffffffffffffffffff16610e6c61109a565b73ffffffffffffffffffffffffffffffffffffffff1614610ec2576040517f08c379a0000000000000000000000000000000000000000000000000000000008152600401610eb99061344d565b60405180910390fd5b8060138190555050565b60108054610ed990613219565b80601f0160208091040260200160405190810160405280929190818152602001828054610f0590613219565b8015610f525780601f10610f2757610100808354040283529160200191610f52565b820191906000526020600020905b815481529060010190602001808311610f3557829003601f168201915b505050505081565b60008073ffffffffffffffffffffffffffffffffffffffff168273ffffffffffffffffffffffffffffffffffffffff161415610fcb576040517f08c379a0000000000000000000000000000000000000000000000000000000008152600401610fc290613756565b60405180910390fd5b600360008373ffffffffffffffffffffffffffffffffffffffff1673ffffffffffffffffffffffffffffffffffffffff168152602001908152602001600020549050919050565b61101a611b4a565b73ffffffffffffffffffffffffffffffffffffffff1661103861109a565b73ffffffffffffffffffffffffffffffffffffffff161461108e576040517f08c379a00000000000000000000000000000000000000000000000000000000081526004016110859061344d565b60405180910390fd5b6110986000611f45565b565b6000600660009054906101000a900473ffffffffffffffffffffffffffffffffffffffff16905090565b6110cc611b4a565b73ffffffffffffffffffffffffffffffffffffffff166110ea61109a565b73ffffffffffffffffffffffffffffffffffffffff1614611140576040517f08c379a00000000000000000000000000000000000000000000000000000000081526004016111379061344d565b60405180910390fd5b80600f8190555050565b60606001805461115990613219565b80601f016020809104026020016040519081016040528092919081815260200182805461118590613219565b80156111d25780601f106111a7576101008083540402835291602001916111d2565b820191906000526020600020905b8154815290600101906020018083116111b557829003601f168201915b5050505050905090565b600f5481565b600d54421015611227576040517f08c379a000000000000000000000000000000000000000000000000000000000815260040161121e906137c2565b60405180910390fd5b60135481601160003373ffffffffffffffffffffffffffffffffffffffff1673ffffffffffffffffffffffffffffffffffffffff168152602001908152602001600020546112759190613811565b11156112b6576040517f08c379a00000000000000000000000000000000000000000000000000000000081526004016112ad906138b3565b60405180910390fd5b80600f546112c491906138d3565b341015611306576040517f08c379a00000000000000000000000000000000000000000000000000000000081526004016112fd9061399f565b60405180910390fd5b61130e61109a565b73ffffffffffffffffffffffffffffffffffffffff166108fc349081150290604051600060405180830381858888f19350505050158015611353573d6000803e3d6000fd5b50601560009054906101000a900460ff166114035760005b6014805490508110156113e6576113d36014828154811061138f5761138e613623565b5b9060005260206000200160009054906101000a900473ffffffffffffffffffffffffffffffffffffffff1660016113c4610a4f565b6113ce9190613811565b61200b565b80806113de906139bf565b91505061136b565b506001601560006101000a81548160ff0219169083151502179055505b80601160003373ffffffffffffffffffffffffffffffffffffffff1673ffffffffffffffffffffffffffffffffffffffff16815260200190815260200160002060008282546114529190613811565b9250508190555060005b8181101561149457611481336001611472610a4f565b61147c9190613811565b61200b565b808061148c906139bf565b91505061145c565b5050565b6114a0611b4a565b73ffffffffffffffffffffffffffffffffffffffff168273ffffffffffffffffffffffffffffffffffffffff16141561150e576040517f08c379a000000000000000000000000000000000000000000000000000000000815260040161150590613a54565b60405180910390fd5b806005600061151b611b4a565b73ffffffffffffffffffffffffffffffffffffffff1673ffffffffffffffffffffffffffffffffffffffff16815260200190815260200160002060008473ffffffffffffffffffffffffffffffffffffffff1673ffffffffffffffffffffffffffffffffffffffff16815260200190815260200160002060006101000a81548160ff0219169083151502179055508173ffffffffffffffffffffffffffffffffffffffff166115c8611b4a565b73ffffffffffffffffffffffffffffffffffffffff167f17307eab39ab6107e8899845ad3d59bd9653f200f220920489ca2b5937696c318360405161160d9190612bf1565b60405180910390a35050565b60135481565b600d5481565b6014818154811061163557600080fd5b906000526020600020016000915054906101000a900473ffffffffffffffffffffffffffffffffffffffff1681565b600e5481565b61167b611675611b4a565b83611c0b565b6116ba576040517f08c379a00000000000000000000000000000000000000000000000000000000081526004016116b1906134df565b60405180910390fd5b6116c684848484612029565b50505050565b600c6020528060005260406000206000915054906101000a900473ffffffffffffffffffffffffffffffffffffffff1681565b606061170a82611ade565b611749576040517f08c379a000000000000000000000000000000000000000000000000000000000815260040161174090613ae6565b60405180910390fd5b6000611753612085565b90506000815111611773576040518060200160405280600081525061179e565b8061177d84612117565b60405160200161178e929190613b42565b6040516020818303038152906040525b915050919050565b6000600560008473ffffffffffffffffffffffffffffffffffffffff1673ffffffffffffffffffffffffffffffffffffffff16815260200190815260200160002060008373ffffffffffffffffffffffffffffffffffffffff1673ffffffffffffffffffffffffffffffffffffffff16815260200190815260200160002060009054906101000a900460ff16905092915050565b60125481565b611848611b4a565b73ffffffffffffffffffffffffffffffffffffffff1661186661109a565b73ffffffffffffffffffffffffffffffffffffffff16146118bc576040517f08c379a00000000000000000000000000000000000000000000000000000000081526004016118b39061344d565b60405180910390fd5b600073ffffffffffffffffffffffffffffffffffffffff168173ffffffffffffffffffffffffffffffffffffffff16141561192c576040517f08c379a000000000000000000000000000000000000000000000000000000000815260040161192390613bd8565b60405180910390fd5b61193581611f45565b50565b600080823b905060008111915050919050565b611956838383611a5f565b600073ffffffffffffffffffffffffffffffffffffffff168373ffffffffffffffffffffffffffffffffffffffff1614156119995761199481612278565b6119d8565b8173ffffffffffffffffffffffffffffffffffffffff168373ffffffffffffffffffffffffffffffffffffffff16146119d7576119d683826122c1565b5b5b600073ffffffffffffffffffffffffffffffffffffffff168273ffffffffffffffffffffffffffffffffffffffff161415611a1b57611a168161242e565b611a5a565b8273ffffffffffffffffffffffffffffffffffffffff168273ffffffffffffffffffffffffffffffffffffffff1614611a5957611a5882826124ff565b5b5b505050565b505050565b60007f780e9d63000000000000000000000000000000000000000000000000000000007bffffffffffffffffffffffffffffffffffffffffffffffffffffffff1916827bffffffffffffffffffffffffffffffffffffffffffffffffffffffff19161480611ad75750611ad68261257e565b5b9050919050565b60008073ffffffffffffffffffffffffffffffffffffffff166002600084815260200190815260200160002060009054906101000a900473ffffffffffffffffffffffffffffffffffffffff1673ffffffffffffffffffffffffffffffffffffffff1614159050919050565b600033905090565b816004600083815260200190815260200160002060006101000a81548173ffffffffffffffffffffffffffffffffffffffff021916908373ffffffffffffffffffffffffffffffffffffffff160217905550808273ffffffffffffffffffffffffffffffffffffffff16611bc583610d94565b73ffffffffffffffffffffffffffffffffffffffff167f8c5be1e5ebec7d5bd14f71427d1e84f3dd0314c0f7b2291e5b200ac8c7c3b92560405160405180910390a45050565b6000611c1682611ade565b611c55576040517f08c379a0000000000000000000000000000000000000000000000000000000008152600401611c4c90613c6a565b60405180910390fd5b6000611c6083610d94565b90508073ffffffffffffffffffffffffffffffffffffffff168473ffffffffffffffffffffffffffffffffffffffff161480611ccf57508373ffffffffffffffffffffffffffffffffffffffff16611cb7846108b2565b73ffffffffffffffffffffffffffffffffffffffff16145b80611ce05750611cdf81856117a6565b5b91505092915050565b8273ffffffffffffffffffffffffffffffffffffffff16611d0982610d94565b73ffffffffffffffffffffffffffffffffffffffff1614611d5f576040517f08c379a0000000000000000000000000000000000000000000000000000000008152600401611d5690613cfc565b60405180910390fd5b600073ffffffffffffffffffffffffffffffffffffffff168273ffffffffffffffffffffffffffffffffffffffff161415611dcf576040517f08c379a0000000000000000000000000000000000000000000000000000000008152600401611dc690613d8e565b60405180910390fd5b611dda838383612660565b611de5600082611b52565b6001600360008573ffffffffffffffffffffffffffffffffffffffff1673ffffffffffffffffffffffffffffffffffffffff1681526020019081526020016000206000828254611e359190613dae565b925050819055506001600360008473ffffffffffffffffffffffffffffffffffffffff1673ffffffffffffffffffffffffffffffffffffffff1681526020019081526020016000206000828254611e8c9190613811565b92505081905550816002600083815260200190815260200160002060006101000a81548173ffffffffffffffffffffffffffffffffffffffff021916908373ffffffffffffffffffffffffffffffffffffffff160217905550808273ffffffffffffffffffffffffffffffffffffffff168473ffffffffffffffffffffffffffffffffffffffff167fddf252ad1be2c89b69c2b068fc378daa952ba7f163c4a11628f55a4df523b3ef60405160405180910390a4505050565b6000600660009054906101000a900473ffffffffffffffffffffffffffffffffffffffff16905081600660006101000a81548173ffffffffffffffffffffffffffffffffffffffff021916908373ffffffffffffffffffffffffffffffffffffffff1602179055508173ffffffffffffffffffffffffffffffffffffffff168173ffffffffffffffffffffffffffffffffffffffff167f8be0079c531659141344cd1fd0a4f28419497f9722a3daafe3b4186f6b6457e060405160405180910390a35050565b612025828260405180602001604052806000815250612670565b5050565b612034848484611ce9565b612040848484846126cb565b61207f576040517f08c379a000000000000000000000000000000000000000000000000000000000815260040161207690613e54565b60405180910390fd5b50505050565b60606010805461209490613219565b80601f01602080910402602001604051908101604052809291908181526020018280546120c090613219565b801561210d5780601f106120e25761010080835404028352916020019161210d565b820191906000526020600020905b8154815290600101906020018083116120f057829003601f168201915b5050505050905090565b6060600082141561215f576040518060400160405280600181526020017f30000000000000000000000000000000000000000000000000000000000000008152509050612273565b600082905060005b6000821461219157808061217a906139bf565b915050600a8261218a9190613ea3565b9150612167565b60008167ffffffffffffffff8111156121ad576121ac612e79565b5b6040519080825280601f01601f1916602001820160405280156121df5781602001600182028036833780820191505090505b5090505b6000851461226c576001826121f89190613dae565b9150600a856122079190613ed4565b60306122139190613811565b60f81b81838151811061222957612228613623565b5b60200101907effffffffffffffffffffffffffffffffffffffffffffffffffffffffffffff1916908160001a905350600a856122659190613ea3565b94506121e3565b8093505050505b919050565b600980549050600a600083815260200190815260200160002081905550600981908060018154018082558091505060019003906000526020600020016000909190919091505550565b600060016122ce84610f5a565b6122d89190613dae565b90506000600860008481526020019081526020016000205490508181146123bd576000600760008673ffffffffffffffffffffffffffffffffffffffff1673ffffffffffffffffffffffffffffffffffffffff168152602001908152602001600020600084815260200190815260200160002054905080600760008773ffffffffffffffffffffffffffffffffffffffff1673ffffffffffffffffffffffffffffffffffffffff168152602001908152602001600020600084815260200190815260200160002081905550816008600083815260200190815260200160002081905550505b6008600084815260200190815260200160002060009055600760008573ffffffffffffffffffffffffffffffffffffffff1673ffffffffffffffffffffffffffffffffffffffff16815260200190815260200160002060008381526020019081526020016000206000905550505050565b600060016009805490506124429190613dae565b90506000600a600084815260200190815260200160002054905060006009838154811061247257612471613623565b5b90600052602060002001549050806009838154811061249457612493613623565b5b906000526020600020018190555081600a600083815260200190815260200160002081905550600a60008581526020019081526020016000206000905560098054806124e3576124e2613f05565b5b6001900381819060005260206000200160009055905550505050565b600061250a83610f5a565b905081600760008573ffffffffffffffffffffffffffffffffffffffff1673ffffffffffffffffffffffffffffffffffffffff168152602001908152602001600020600083815260200190815260200160002081905550806008600084815260200190815260200160002081905550505050565b60007f80ac58cd000000000000000000000000000000000000000000000000000000007bffffffffffffffffffffffffffffffffffffffffffffffffffffffff1916827bffffffffffffffffffffffffffffffffffffffffffffffffffffffff1916148061264957507f5b5e139f000000000000000000000000000000000000000000000000000000007bffffffffffffffffffffffffffffffffffffffffffffffffffffffff1916827bffffffffffffffffffffffffffffffffffffffffffffffffffffffff1916145b80612659575061265882612862565b5b9050919050565b61266b83838361194b565b505050565b61267a83836128cc565b61268760008484846126cb565b6126c6576040517f08c379a00000000000000000000000000000000000000000000000000000000081526004016126bd90613e54565b60405180910390fd5b505050565b60006126ec8473ffffffffffffffffffffffffffffffffffffffff16611938565b15612855578373ffffffffffffffffffffffffffffffffffffffff1663150b7a02612715611b4a565b8786866040518563ffffffff1660e01b81526004016127379493929190613f89565b602060405180830381600087803b15801561275157600080fd5b505af192505050801561278257506040513d601f19601f8201168201806040525081019061277f9190613fea565b60015b612805573d80600081146127b2576040519150601f19603f3d011682016040523d82523d6000602084013e6127b7565b606091505b506000815114156127fd576040517f08c379a00000000000000000000000000000000000000000000000000000000081526004016127f490613e54565b60405180910390fd5b805181602001fd5b63150b7a0260e01b7bffffffffffffffffffffffffffffffffffffffffffffffffffffffff1916817bffffffffffffffffffffffffffffffffffffffffffffffffffffffff19161491505061285a565b600190505b949350505050565b60007f01ffc9a7000000000000000000000000000000000000000000000000000000007bffffffffffffffffffffffffffffffffffffffffffffffffffffffff1916827bffffffffffffffffffffffffffffffffffffffffffffffffffffffff1916149050919050565b600073ffffffffffffffffffffffffffffffffffffffff168273ffffffffffffffffffffffffffffffffffffffff16141561293c576040517f08c379a000000000000000000000000000000000000000000000000000000000815260040161293390614063565b60405180910390fd5b61294581611ade565b15612985576040517f08c379a000000000000000000000000000000000000000000000000000000000815260040161297c906140cf565b60405180910390fd5b61299160008383612660565b6001600360008473ffffffffffffffffffffffffffffffffffffffff1673ffffffffffffffffffffffffffffffffffffffff16815260200190815260200160002060008282546129e19190613811565b92505081905550816002600083815260200190815260200160002060006101000a81548173ffffffffffffffffffffffffffffffffffffffff021916908373ffffffffffffffffffffffffffffffffffffffff160217905550808273ffffffffffffffffffffffffffffffffffffffff16600073ffffffffffffffffffffffffffffffffffffffff167fddf252ad1be2c89b69c2b068fc378daa952ba7f163c4a11628f55a4df523b3ef60405160405180910390a45050565b828054612aa690613219565b90600052602060002090601f016020900481019282612ac85760008555612b0f565b82601f10612ae157805160ff1916838001178555612b0f565b82800160010185558215612b0f579182015b82811115612b0e578251825591602001919060010190612af3565b5b509050612b1c9190612b20565b5090565b5b80821115612b39576000816000905550600101612b21565b5090565b6000604051905090565b600080fd5b600080fd5b60007fffffffff0000000000000000000000000000000000000000000000000000000082169050919050565b612b8681612b51565b8114612b9157600080fd5b50565b600081359050612ba381612b7d565b92915050565b600060208284031215612bbf57612bbe612b47565b5b6000612bcd84828501612b94565b91505092915050565b60008115159050919050565b612beb81612bd6565b82525050565b6000602082019050612c066000830184612be2565b92915050565b600081519050919050565b600082825260208201905092915050565b60005b83811015612c46578082015181840152602081019050612c2b565b83811115612c55576000848401525b50505050565b6000601f19601f8301169050919050565b6000612c7782612c0c565b612c818185612c17565b9350612c91818560208601612c28565b612c9a81612c5b565b840191505092915050565b60006020820190508181036000830152612cbf8184612c6c565b905092915050565b6000819050919050565b612cda81612cc7565b8114612ce557600080fd5b50565b600081359050612cf781612cd1565b92915050565b600060208284031215612d1357612d12612b47565b5b6000612d2184828501612ce8565b91505092915050565b600073ffffffffffffffffffffffffffffffffffffffff82169050919050565b6000612d5582612d2a565b9050919050565b612d6581612d4a565b82525050565b6000602082019050612d806000830184612d5c565b92915050565b612d8f81612d4a565b8114612d9a57600080fd5b50565b600081359050612dac81612d86565b92915050565b60008060408385031215612dc957612dc8612b47565b5b6000612dd785828601612d9d565b9250506020612de885828601612ce8565b9150509250929050565b612dfb81612cc7565b82525050565b6000602082019050612e166000830184612df2565b92915050565b600080600060608486031215612e3557612e34612b47565b5b6000612e4386828701612d9d565b9350506020612e5486828701612d9d565b9250506040612e6586828701612ce8565b9150509250925092565b600080fd5b600080fd5b7f4e487b7100000000000000000000000000000000000000000000000000000000600052604160045260246000fd5b612eb182612c5b565b810181811067ffffffffffffffff82111715612ed057612ecf612e79565b5b80604052505050565b6000612ee3612b3d565b9050612eef8282612ea8565b919050565b600067ffffffffffffffff821115612f0f57612f0e612e79565b5b612f1882612c5b565b9050602081019050919050565b82818337600083830152505050565b6000612f47612f4284612ef4565b612ed9565b905082815260208101848484011115612f6357612f62612e74565b5b612f6e848285612f25565b509392505050565b600082601f830112612f8b57612f8a612e6f565b5b8135612f9b848260208601612f34565b91505092915050565b600060208284031215612fba57612fb9612b47565b5b600082013567ffffffffffffffff811115612fd857612fd7612b4c565b5b612fe484828501612f76565b91505092915050565b60006020828403121561300357613002612b47565b5b600061301184828501612d9d565b91505092915050565b61302381612bd6565b811461302e57600080fd5b50565b6000813590506130408161301a565b92915050565b6000806040838503121561305d5761305c612b47565b5b600061306b85828601612d9d565b925050602061307c85828601613031565b9150509250929050565b600067ffffffffffffffff8211156130a1576130a0612e79565b5b6130aa82612c5b565b9050602081019050919050565b60006130ca6130c584613086565b612ed9565b9050828152602081018484840111156130e6576130e5612e74565b5b6130f1848285612f25565b509392505050565b600082601f83011261310e5761310d612e6f565b5b813561311e8482602086016130b7565b91505092915050565b6000806000806080858703121561314157613140612b47565b5b600061314f87828801612d9d565b945050602061316087828801612d9d565b935050604061317187828801612ce8565b925050606085013567ffffffffffffffff81111561319257613191612b4c565b5b61319e878288016130f9565b91505092959194509250565b600080604083850312156131c1576131c0612b47565b5b60006131cf85828601612d9d565b92505060206131e085828601612d9d565b9150509250929050565b7f4e487b7100000000000000000000000000000000000000000000000000000000600052602260045260246000fd5b6000600282049050600182168061323157607f821691505b60208210811415613245576132446131ea565b5b50919050565b7f4552433732313a20617070726f76656420717565727920666f72206e6f6e657860008201527f697374656e7420746f6b656e0000000000000000000000000000000000000000602082015250565b60006132a7602c83612c17565b91506132b28261324b565b604082019050919050565b600060208201905081810360008301526132d68161329a565b9050919050565b7f4552433732313a20617070726f76616c20746f2063757272656e74206f776e6560008201527f7200000000000000000000000000000000000000000000000000000000000000602082015250565b6000613339602183612c17565b9150613344826132dd565b604082019050919050565b600060208201905081810360008301526133688161332c565b9050919050565b7f4552433732313a20617070726f76652063616c6c6572206973206e6f74206f7760008201527f6e6572206e6f7220617070726f76656420666f7220616c6c0000000000000000602082015250565b60006133cb603883612c17565b91506133d68261336f565b604082019050919050565b600060208201905081810360008301526133fa816133be565b9050919050565b7f4f776e61626c653a2063616c6c6572206973206e6f7420746865206f776e6572600082015250565b6000613437602083612c17565b915061344282613401565b602082019050919050565b600060208201905081810360008301526134668161342a565b9050919050565b7f4552433732313a207472616e736665722063616c6c6572206973206e6f74206f60008201527f776e6572206e6f7220617070726f766564000000000000000000000000000000602082015250565b60006134c9603183612c17565b91506134d48261346d565b604082019050919050565b600060208201905081810360008301526134f8816134bc565b9050919050565b7f455243373231456e756d657261626c653a206f776e657220696e646578206f7560008201527f74206f6620626f756e6473000000000000000000000000000000000000000000602082015250565b600061355b602b83612c17565b9150613566826134ff565b604082019050919050565b6000602082019050818103600083015261358a8161354e565b9050919050565b7f455243373231456e756d657261626c653a20676c6f62616c20696e646578206f60008201527f7574206f6620626f756e64730000000000000000000000000000000000000000602082015250565b60006135ed602c83612c17565b91506135f882613591565b604082019050919050565b6000602082019050818103600083015261361c816135e0565b9050919050565b7f4e487b7100000000000000000000000000000000000000000000000000000000600052603260045260246000fd5b7f4552433732313a206f776e657220717565727920666f72206e6f6e657869737460008201527f656e7420746f6b656e0000000000000000000000000000000000000000000000602082015250565b60006136ae602983612c17565b91506136b982613652565b604082019050919050565b600060208201905081810360008301526136dd816136a1565b9050919050565b7f4552433732313a2062616c616e636520717565727920666f7220746865207a6560008201527f726f206164647265737300000000000000000000000000000000000000000000602082015250565b6000613740602a83612c17565b915061374b826136e4565b604082019050919050565b6000602082019050818103600083015261376f81613733565b9050919050565b7f53616c6520686173206e6f7420737461727465642e0000000000000000000000600082015250565b60006137ac601583612c17565b91506137b782613776565b602082019050919050565b600060208201905081810360008301526137db8161379f565b9050919050565b7f4e487b7100000000000000000000000000000000000000000000000000000000600052601160045260246000fd5b600061381c82612cc7565b915061382783612cc7565b9250827fffffffffffffffffffffffffffffffffffffffffffffffffffffffffffffffff0382111561385c5761385b6137e2565b5b828201905092915050565b7f596f75206861766520616c7265616479206d696e746564203230204e4654732e600082015250565b600061389d602083612c17565b91506138a882613867565b602082019050919050565b600060208201905081810360008301526138cc81613890565b9050919050565b60006138de82612cc7565b91506138e983612cc7565b9250817fffffffffffffffffffffffffffffffffffffffffffffffffffffffffffffffff0483118215151615613922576139216137e2565b5b828202905092915050565b7f596f752068617665206e6f7420706179656420656e6f75676820746f206d696e60008201527f7400000000000000000000000000000000000000000000000000000000000000602082015250565b6000613989602183612c17565b91506139948261392d565b604082019050919050565b600060208201905081810360008301526139b88161397c565b9050919050565b60006139ca82612cc7565b91507fffffffffffffffffffffffffffffffffffffffffffffffffffffffffffffffff8214156139fd576139fc6137e2565b5b600182019050919050565b7f4552433732313a20617070726f766520746f2063616c6c657200000000000000600082015250565b6000613a3e601983612c17565b9150613a4982613a08565b602082019050919050565b60006020820190508181036000830152613a6d81613a31565b9050919050565b7f4552433732314d657461646174613a2055524920717565727920666f72206e6f60008201527f6e6578697374656e7420746f6b656e0000000000000000000000000000000000602082015250565b6000613ad0602f83612c17565b9150613adb82613a74565b604082019050919050565b60006020820190508181036000830152613aff81613ac3565b9050919050565b600081905092915050565b6000613b1c82612c0c565b613b268185613b06565b9350613b36818560208601612c28565b80840191505092915050565b6000613b4e8285613b11565b9150613b5a8284613b11565b91508190509392505050565b7f4f776e61626c653a206e6577206f776e657220697320746865207a65726f206160008201527f6464726573730000000000000000000000000000000000000000000000000000602082015250565b6000613bc2602683612c17565b9150613bcd82613b66565b604082019050919050565b60006020820190508181036000830152613bf181613bb5565b9050919050565b7f4552433732313a206f70657261746f7220717565727920666f72206e6f6e657860008201527f697374656e7420746f6b656e0000000000000000000000000000000000000000602082015250565b6000613c54602c83612c17565b9150613c5f82613bf8565b604082019050919050565b60006020820190508181036000830152613c8381613c47565b9050919050565b7f4552433732313a207472616e73666572206f6620746f6b656e2074686174206960008201527f73206e6f74206f776e0000000000000000000000000000000000000000000000602082015250565b6000613ce6602983612c17565b9150613cf182613c8a565b604082019050919050565b60006020820190508181036000830152613d1581613cd9565b9050919050565b7f4552433732313a207472616e7366657220746f20746865207a65726f2061646460008201527f7265737300000000000000000000000000000000000000000000000000000000602082015250565b6000613d78602483612c17565b9150613d8382613d1c565b604082019050919050565b60006020820190508181036000830152613da781613d6b565b9050919050565b6000613db982612cc7565b9150613dc483612cc7565b925082821015613dd757613dd66137e2565b5b828203905092915050565b7f4552433732313a207472616e7366657220746f206e6f6e20455243373231526560008201527f63656976657220696d706c656d656e7465720000000000000000000000000000602082015250565b6000613e3e603283612c17565b9150613e4982613de2565b604082019050919050565b60006020820190508181036000830152613e6d81613e31565b9050919050565b7f4e487b7100000000000000000000000000000000000000000000000000000000600052601260045260246000fd5b6000613eae82612cc7565b9150613eb983612cc7565b925082613ec957613ec8613e74565b5b828204905092915050565b6000613edf82612cc7565b9150613eea83612cc7565b925082613efa57613ef9613e74565b5b828206905092915050565b7f4e487b7100000000000000000000000000000000000000000000000000000000600052603160045260246000fd5b600081519050919050565b600082825260208201905092915050565b6000613f5b82613f34565b613f658185613f3f565b9350613f75818560208601612c28565b613f7e81612c5b565b840191505092915050565b6000608082019050613f9e6000830187612d5c565b613fab6020830186612d5c565b613fb86040830185612df2565b8181036060830152613fca8184613f50565b905095945050505050565b600081519050613fe481612b7d565b92915050565b60006020828403121561400057613fff612b47565b5b600061400e84828501613fd5565b91505092915050565b7f4552433732313a206d696e7420746f20746865207a65726f2061646472657373600082015250565b600061404d602083612c17565b915061405882614017565b602082019050919050565b6000602082019050818103600083015261407c81614040565b9050919050565b7f4552433732313a20746f6b656e20616c7265616479206d696e74656400000000600082015250565b60006140b9601c83612c17565b91506140c482614083565b602082019050919050565b600060208201905081810360008301526140e8816140ac565b905091905056fea2646970667358221220081de3b05f8151de6fc1e99bc2543cce9a2226df8b73700fdbe0ce127d4a8d2b64736f6c6343000808003368747470733a2f2f697066732e696e667572612e696f2f697066732f516d58566b54714c536d454c686862763748743443574c55623336564a75525a67316f69666576463968727774372f",
  "immutableReferences": {},
  "source": "// SPDX-License-Identifier: UNLICENSED\npragma solidity ^0.8.0;\n\nimport \"@openzeppelin/contracts/token/ERC721/ERC721.sol\";\nimport \"@openzeppelin/contracts/access/Ownable.sol\";\nimport \"@openzeppelin/contracts/token/ERC721/extensions/ERC721Enumerable.sol\";\nimport \"@openzeppelin/contracts/token/ERC721/extensions/ERC721URIStorage.sol\";\nimport \"@openzeppelin/contracts/utils/Strings.sol\";\n\n\ncontract TamaNFT is ERC721, Ownable, ERC721Enumerable, ERC721URIStorage {\n\n  using Strings for uint256;\n\n  mapping(uint => address) public nftOwners;\n  uint public saleStart;\n  uint public nftsSale;\n  uint public price = 25000000000000000;\n  string public baseURI = \"https://ipfs.infura.io/ipfs/QmXVkTqLSmELhhbv7Ht4CWLUb36VJuRZg1oifevF9hrwt7/\";\n\n  mapping(address => uint) amountMinted;\n\n  uint public MAX_MINT = 10000;\n  uint public MAX_INDI_MINT = 20;\n  \n\n  address[] public airdropTo = [0x92579f9b193a1d41aE65fbf187b6adb058F583cF,\n                                0x498b49E51aaE848b1fF7B1F1c56330c5241D8f85,\n                                0x5daf1d7271b9eaA4BDBED253314B293bc8Ea3d1F,\n                                0xA684BdF5DB1b316202F91fDA2D590B2d538D8eaa,\n                                0xEDc681F89333fab7c7dde19dB2a40c4390A05d46,\n                                0x4E55D9aa0C8A9464c2A63cF3D0818fe09fC9e17b,\n                                0x82372e5EF6648331a8Dbce24D55DD305fB5d9ee3,\n                                0x732657B1746a95d82c80E8512E3A11B48acfd169,\n                                0x699ce2Ca25FA89226C6d441fBA8377dd90bA3E4A,\n                                0xD7779bb0e52E60413147Df10eb5F6C52fFda1AD1,\n                                0x62756de5B5A170417c716695918F2253fF901bB8,\n                                0xC03fe5A6a856adcb1b2A1f3080D44888F47385CD,\n                                0x48f46281777fb384b89EcDFBca3283ba304d6207,\n                                0x531ab8B3aE8E6777c7054Fc1939f54e910d0bB78,\n                                0x7b05829b90a6E7928b81bC419B171179d4B4201b];\n  bool airdropped = false;\n\n  constructor(uint _saleStart) ERC721(\"Tama Monster Club\", \"TAMA\") {\n    saleStart = _saleStart;\n\n    for (uint256 i = 0; i < 20; i++) {\n      _safeMint(0x51b03278E8FdC2C3F123d0e460BB8f942E4a9FCf, totalSupply()+1);\n    }\n  }\n\n  function setSaleStart(uint _newStart) public onlyOwner {\n    saleStart = _newStart;\n  }\n\n  function changeMaxMint(uint _newMax) public onlyOwner {\n    MAX_MINT = _newMax;\n  }\n\n  function changeMaxIndividualMint(uint _newMax) public onlyOwner {\n    MAX_INDI_MINT = _newMax;\n  }\n\n  function setPrice(uint _newPrice) public onlyOwner {\n    price = _newPrice;\n  }\n\n  function mint(uint _mintAmount) public payable {\n    require(block.timestamp >= saleStart, \"Sale has not started.\");\n    require((amountMinted[msg.sender] + _mintAmount) <= MAX_INDI_MINT, \"You have already minted 20 NFTs.\");\n    require(msg.value >= price*_mintAmount, \"You have not payed enough to mint\");\n\n    payable(owner()).transfer(msg.value);\n\n    if(!airdropped) {\n      for (uint i = 0; i < airdropTo.length; i++) {\n        _safeMint(airdropTo[i], totalSupply()+1);\n      }\n      airdropped = true;\n    }\n\n    amountMinted[msg.sender] += _mintAmount;\n    for (uint i = 0; i < _mintAmount; i++) {\n      _safeMint(msg.sender, totalSupply()+1);\n    }\n  }\n  \n  function _beforeTokenTransfer(address from, address to, uint256 tokenId)\n      internal\n      override(ERC721, ERC721Enumerable)\n  {\n      super._beforeTokenTransfer(from, to, tokenId);\n  }\n\n  function _burn(uint256 tokenId) internal override(ERC721, ERC721URIStorage) {\n      super._burn(tokenId);\n  }\n\n  function setBaseURI(string memory baseURI_) public onlyOwner {\n      baseURI = baseURI_;\n  }\n\n  function _baseURI() internal view override returns (string memory) {\n      return baseURI;\n  }\n\n  function tokenURI(uint256 tokenId)\n      public\n      view\n      override(ERC721, ERC721URIStorage)\n      returns (string memory)\n  {\n    require(\n      _exists(tokenId),\n      \"ERC721Metadata: URI query for nonexistent token\"\n    );\n\n    string memory currentBaseURI = _baseURI();\n    return bytes(currentBaseURI).length > 0\n        ? string(abi.encodePacked(currentBaseURI, tokenId.toString()))\n        : \"\";\n  }\n\n  function supportsInterface(bytes4 interfaceId)\n      public\n      view\n      override(ERC721, ERC721Enumerable)\n      returns (bool)\n  {\n      return super.supportsInterface(interfaceId);\n  }\n\n  receive () payable external {}\n\n  fallback () external {}\n\n}",
  "sourcePath": "/Users/israeladelaja/Desktop/TamaNFT/contracts/TamaNFT.sol",
  "compiler": {
    "name": "solc",
    "version": "0.8.8+commit.dddeac2f.Emscripten.clang"
  },
  "schemaVersion": "3.4.2",
  "updatedAt": "2021-09-29T10:33:11.916Z",
  "networkType": "ethereum",
  "devdoc": {
    "kind": "dev",
    "methods": {
      "approve(address,uint256)": {
        "details": "See {IERC721-approve}."
      },
      "balanceOf(address)": {
        "details": "See {IERC721-balanceOf}."
      },
      "getApproved(uint256)": {
        "details": "See {IERC721-getApproved}."
      },
      "isApprovedForAll(address,address)": {
        "details": "See {IERC721-isApprovedForAll}."
      },
      "name()": {
        "details": "See {IERC721Metadata-name}."
      },
      "owner()": {
        "details": "Returns the address of the current owner."
      },
      "ownerOf(uint256)": {
        "details": "See {IERC721-ownerOf}."
      },
      "renounceOwnership()": {
        "details": "Leaves the contract without owner. It will not be possible to call `onlyOwner` functions anymore. Can only be called by the current owner. NOTE: Renouncing ownership will leave the contract without an owner, thereby removing any functionality that is only available to the owner."
      },
      "safeTransferFrom(address,address,uint256)": {
        "details": "See {IERC721-safeTransferFrom}."
      },
      "safeTransferFrom(address,address,uint256,bytes)": {
        "details": "See {IERC721-safeTransferFrom}."
      },
      "setApprovalForAll(address,bool)": {
        "details": "See {IERC721-setApprovalForAll}."
      },
      "symbol()": {
        "details": "See {IERC721Metadata-symbol}."
      },
      "tokenByIndex(uint256)": {
        "details": "See {IERC721Enumerable-tokenByIndex}."
      },
      "tokenOfOwnerByIndex(address,uint256)": {
        "details": "See {IERC721Enumerable-tokenOfOwnerByIndex}."
      },
      "totalSupply()": {
        "details": "See {IERC721Enumerable-totalSupply}."
      },
      "transferFrom(address,address,uint256)": {
        "details": "See {IERC721-transferFrom}."
      },
      "transferOwnership(address)": {
        "details": "Transfers ownership of the contract to a new account (`newOwner`). Can only be called by the current owner."
      }
    },
    "version": 1
  },
  "userdoc": {
    "kind": "user",
    "methods": {},
    "version": 1
  }
}